{
  "abi": [
    {
      "inputs": [],
      "stateMutability": "nonpayable",
      "type": "constructor"
    },
    {
      "inputs": [],
      "name": "LowLevelCall__CallFailed",
      "type": "error"
    },
    {
      "inputs": [],
      "name": "LowLevelCall__NonContract",
      "type": "error"
    },
    {
      "inputs": [],
      "name": "ManagerAccount__AccountNotInitialized",
      "type": "error"
    },
    {
      "inputs": [],
      "name": "ManagerAccount__PairNotExists",
      "type": "error"
    },
    {
      "inputs": [
        {
          "internalType": "uint256",
          "name": "prod1",
          "type": "uint256"
        },
        {
          "internalType": "uint256",
          "name": "denominator",
          "type": "uint256"
        }
      ],
      "name": "Math512Bits__MulDivOverflow",
      "type": "error"
    },
    {
      "inputs": [
        {
          "internalType": "uint256",
          "name": "offset",
          "type": "uint256"
        }
      ],
      "name": "Math512Bits__OffsetOverflows",
      "type": "error"
    },
    {
      "inputs": [
        {
          "internalType": "address",
          "name": "pairAddress_",
          "type": "address"
        },
        {
          "components": [
            {
              "internalType": "contract IERC20",
              "name": "tokenX",
              "type": "address"
            },
            {
              "internalType": "contract IERC20",
              "name": "tokenY",
              "type": "address"
            },
            {
              "internalType": "uint256",
              "name": "binStep",
              "type": "uint256"
            },
            {
              "internalType": "uint256",
              "name": "amountX",
              "type": "uint256"
            },
            {
              "internalType": "uint256",
              "name": "amountY",
              "type": "uint256"
            },
            {
              "internalType": "uint256",
              "name": "amountXMin",
              "type": "uint256"
            },
            {
              "internalType": "uint256",
              "name": "amountYMin",
              "type": "uint256"
            },
            {
              "internalType": "uint256",
              "name": "activeIdDesired",
              "type": "uint256"
            },
            {
              "internalType": "uint256",
              "name": "idSlippage",
              "type": "uint256"
            },
            {
              "internalType": "int256[]",
              "name": "deltaIds",
              "type": "int256[]"
            },
            {
              "internalType": "uint256[]",
              "name": "distributionX",
              "type": "uint256[]"
            },
            {
              "internalType": "uint256[]",
              "name": "distributionY",
              "type": "uint256[]"
            },
            {
              "internalType": "address",
              "name": "to",
              "type": "address"
            },
            {
              "internalType": "uint256",
              "name": "deadline",
              "type": "uint256"
            }
          ],
          "internalType": "struct ManagerAccount.LiquidityParameters",
          "name": "paramsUser_",
          "type": "tuple"
        }
      ],
      "name": "addLiquidity",
      "outputs": [],
      "stateMutability": "nonpayable",
      "type": "function"
    },
    {
      "inputs": [
        {
          "internalType": "address",
          "name": "borrowToken_",
          "type": "address"
        },
        {
          "internalType": "uint256",
          "name": "borrowAmount_",
          "type": "uint256"
        }
      ],
      "name": "borrow",
      "outputs": [],
      "stateMutability": "nonpayable",
      "type": "function"
    },
    {
      "inputs": [
        {
          "internalType": "address",
          "name": "pairAddress_",
          "type": "address"
        },
        {
          "internalType": "uint256[]",
          "name": "ids_",
          "type": "uint256[]"
        },
        {
          "internalType": "contract IERC20",
          "name": "tokenX_",
          "type": "address"
        },
        {
          "internalType": "contract IERC20",
          "name": "tokenY_",
          "type": "address"
        }
      ],
      "name": "collectFees",
      "outputs": [
        {
          "internalType": "uint256",
          "name": "amountX",
          "type": "uint256"
        },
        {
          "internalType": "uint256",
          "name": "amountY",
          "type": "uint256"
        }
      ],
      "stateMutability": "nonpayable",
      "type": "function"
    },
    {
      "inputs": [
        {
          "internalType": "address",
          "name": "token_",
          "type": "address"
        },
        {
          "internalType": "uint256",
          "name": "amountIn_",
          "type": "uint256"
        }
      ],
      "name": "deposit",
      "outputs": [],
      "stateMutability": "nonpayable",
      "type": "function"
    },
    {
      "inputs": [
        {
          "internalType": "address",
          "name": "token_",
          "type": "address"
        }
      ],
      "name": "getAccountBalanceAvailable",
      "outputs": [
        {
          "internalType": "uint256",
          "name": "",
          "type": "uint256"
        }
      ],
      "stateMutability": "view",
      "type": "function"
    },
    {
      "inputs": [
        {
          "internalType": "address",
          "name": "token_",
          "type": "address"
        }
      ],
      "name": "getAccountBalanceAvailableLast",
      "outputs": [
        {
          "internalType": "uint256",
          "name": "",
          "type": "uint256"
        }
      ],
      "stateMutability": "view",
      "type": "function"
    },
    {
      "inputs": [],
      "name": "getAccountFrozen",
      "outputs": [
        {
          "internalType": "bool",
          "name": "",
          "type": "bool"
        }
      ],
      "stateMutability": "view",
      "type": "function"
    },
    {
      "inputs": [
        {
          "internalType": "uint256",
          "name": "index_",
          "type": "uint256"
        }
      ],
      "name": "getApprovedLBPairByIndex",
      "outputs": [
        {
          "internalType": "address",
          "name": "",
          "type": "address"
        }
      ],
      "stateMutability": "view",
      "type": "function"
    },
    {
      "inputs": [],
      "name": "getApprovedLBPairsLength",
      "outputs": [
        {
          "internalType": "uint256",
          "name": "",
          "type": "uint256"
        }
      ],
      "stateMutability": "view",
      "type": "function"
    },
    {
      "inputs": [],
      "name": "getAssessState",
      "outputs": [
        {
          "internalType": "bool",
          "name": "",
          "type": "bool"
        }
      ],
      "stateMutability": "view",
      "type": "function"
    },
    {
      "inputs": [],
      "name": "getCredit",
      "outputs": [
        {
          "internalType": "uint256",
          "name": "",
          "type": "uint256"
        }
      ],
      "stateMutability": "view",
      "type": "function"
    },
    {
      "inputs": [
        {
          "internalType": "address",
          "name": "lbPair_",
          "type": "address"
        }
      ],
      "name": "getLBPairApprovalIf",
      "outputs": [
        {
          "internalType": "bool",
          "name": "",
          "type": "bool"
        }
      ],
      "stateMutability": "view",
      "type": "function"
    },
    {
      "inputs": [
        {
          "internalType": "address",
          "name": "pair_",
          "type": "address"
        }
      ],
      "name": "getLBPairInfoMapping",
      "outputs": [
        {
          "internalType": "contract IERC20",
          "name": "",
          "type": "address"
        },
        {
          "internalType": "contract IERC20",
          "name": "",
          "type": "address"
        },
        {
          "internalType": "uint256",
          "name": "",
          "type": "uint256"
        }
      ],
      "stateMutability": "view",
      "type": "function"
    },
    {
      "inputs": [
        {
          "internalType": "address",
          "name": "pair_",
          "type": "address"
        }
      ],
      "name": "getLBPairInfoTokenBinStep",
      "outputs": [
        {
          "internalType": "uint256",
          "name": "",
          "type": "uint256"
        }
      ],
      "stateMutability": "view",
      "type": "function"
    },
    {
      "inputs": [
        {
          "internalType": "address",
          "name": "pair_",
          "type": "address"
        }
      ],
      "name": "getLBPairInfoTokenX",
      "outputs": [
        {
          "internalType": "contract IERC20",
          "name": "",
          "type": "address"
        }
      ],
      "stateMutability": "view",
      "type": "function"
    },
    {
      "inputs": [
        {
          "internalType": "address",
          "name": "pair_",
          "type": "address"
        }
      ],
      "name": "getLBPairInfoTokenY",
      "outputs": [
        {
          "internalType": "contract IERC20",
          "name": "",
          "type": "address"
        }
      ],
      "stateMutability": "view",
      "type": "function"
    },
    {
      "inputs": [
        {
          "internalType": "address",
          "name": "pair_",
          "type": "address"
        },
        {
          "internalType": "uint256",
          "name": "index_",
          "type": "uint256"
        }
      ],
      "name": "getMMLBPairToIdSetAtValue",
      "outputs": [
        {
          "internalType": "uint256",
          "name": "",
          "type": "uint256"
        }
      ],
      "stateMutability": "view",
      "type": "function"
    },
    {
      "inputs": [
        {
          "internalType": "address",
          "name": "pair_",
          "type": "address"
        }
      ],
      "name": "getMMLBPairToIdSetLength",
      "outputs": [
        {
          "internalType": "uint256",
          "name": "",
          "type": "uint256"
        }
      ],
      "stateMutability": "view",
      "type": "function"
    },
    {
      "inputs": [
        {
          "internalType": "address",
          "name": "pair_",
          "type": "address"
        },
        {
          "internalType": "uint256",
          "name": "id_",
          "type": "uint256"
        }
      ],
      "name": "getMMLBPairToIdToAmount",
      "outputs": [
        {
          "internalType": "uint256",
          "name": "",
          "type": "uint256"
        }
      ],
      "stateMutability": "view",
      "type": "function"
    },
    {
      "inputs": [],
      "name": "getManager",
      "outputs": [
        {
          "internalType": "address",
          "name": "",
          "type": "address"
        }
      ],
      "stateMutability": "view",
      "type": "function"
    },
    {
      "inputs": [
        {
          "internalType": "address",
          "name": "guard_",
          "type": "address"
        },
        {
          "internalType": "address",
          "name": "manager_",
          "type": "address"
        },
        {
          "internalType": "address",
          "name": "ILBRouterAddress_",
          "type": "address"
        }
      ],
      "name": "initializeAccount",
      "outputs": [],
      "stateMutability": "nonpayable",
      "type": "function"
    },
    {
      "inputs": [
        {
          "internalType": "address",
          "name": "pairAddress_",
          "type": "address"
        },
        {
          "internalType": "uint256[]",
          "name": "ids_",
          "type": "uint256[]"
        },
        {
          "internalType": "uint256[]",
          "name": "amounts_",
          "type": "uint256[]"
        },
        {
          "internalType": "uint256",
          "name": "deadline_",
          "type": "uint256"
        }
      ],
      "name": "removeLiquidity",
      "outputs": [],
      "stateMutability": "nonpayable",
      "type": "function"
    },
    {
      "inputs": [
        {
          "internalType": "address",
          "name": "repayToken_",
          "type": "address"
        }
      ],
      "name": "repay",
      "outputs": [],
      "stateMutability": "nonpayable",
      "type": "function"
    },
    {
      "inputs": [
        {
          "internalType": "address",
          "name": "token_",
          "type": "address"
        }
      ],
      "name": "setERC20Approval",
      "outputs": [],
      "stateMutability": "nonpayable",
      "type": "function"
    },
    {
      "inputs": [
        {
          "internalType": "address",
          "name": "pairAddress_",
          "type": "address"
        },
        {
          "internalType": "uint256[]",
          "name": "ids_",
          "type": "uint256[]"
        },
        {
          "internalType": "contract IERC20",
          "name": "tokenX",
          "type": "address"
        },
        {
          "internalType": "contract IERC20",
          "name": "tokenY",
          "type": "address"
        }
      ],
      "name": "testCollectFees",
      "outputs": [],
      "stateMutability": "nonpayable",
      "type": "function"
    },
    {
      "inputs": [
        {
          "internalType": "address",
          "name": "from_",
          "type": "address"
        },
        {
          "internalType": "address",
          "name": "token_",
          "type": "address"
        },
        {
          "internalType": "uint256",
          "name": "amountIn_",
          "type": "uint256"
        }
      ],
      "name": "transferIn",
      "outputs": [],
      "stateMutability": "nonpayable",
      "type": "function"
    },
    {
      "inputs": [
        {
          "internalType": "address",
          "name": "to_",
          "type": "address"
        },
        {
          "internalType": "address",
          "name": "token_",
          "type": "address"
        },
        {
          "internalType": "uint256",
          "name": "amountOut_",
          "type": "uint256"
        }
      ],
      "name": "transferOut",
      "outputs": [],
      "stateMutability": "nonpayable",
      "type": "function"
    },
    {
      "inputs": [
        {
          "internalType": "bool",
          "name": "state_",
          "type": "bool"
        }
      ],
      "name": "updateFreezeState",
      "outputs": [],
      "stateMutability": "nonpayable",
      "type": "function"
    },
    {
      "inputs": [
        {
          "internalType": "address",
          "name": "token_",
          "type": "address"
        },
        {
          "internalType": "uint256",
          "name": "amountOut_",
          "type": "uint256"
        }
      ],
      "name": "withdraw",
      "outputs": [],
      "stateMutability": "nonpayable",
      "type": "function"
    }
  ],
  "bytecode": "608060405234801561001057600080fd5b506001600055600580546001600160a01b031916331790556133b5806100376000396000f3fe608060405234801561001057600080fd5b50600436106101ce5760003560e01c80637d2a16e911610104578063d5009584116100a2578063e5ea2c7e11610071578063e5ea2c7e14610422578063efd5db2c1461044a578063f3fef3a31461045d578063fdfe04561461047057600080fd5b8063d5009584146103c2578063da99f4bb146103d3578063dad9fc1a146103e6578063e4652f491461040f57600080fd5b8063ac6427c1116100de578063ac6427c114610367578063b7b9ae1a14610389578063b7f430201461039c578063c2d5a4e7146103af57600080fd5b80637d2a16e9146103365780639ebd43f9146103495780639f7c73e91461035457600080fd5b80634b8a35291161017157806359296e7b1161014b57806359296e7b1461030057806365308b8d14610308578063747b808c146103105780637887cbd61461032357600080fd5b80634b8a3529146102c75780634f422ca9146102da5780635893021e146102ed57600080fd5b80630bbf3cf5116101ad5780630bbf3cf51461022b5780631536acb614610262578063250e88731461029857806347e7ef24146102b457600080fd5b8062dee0f0146101d3578063078d3b79146102035780630b6bf49a14610218575b600080fd5b6101e66101e1366004612979565b610483565b6040516001600160a01b0390911681526020015b60405180910390f35b610216610211366004612996565b6104f7565b005b6102166102263660046129e5565b6105b5565b610254610239366004612979565b6001600160a01b031660009081526009602052604090205490565b6040519081526020016101fa565b610254610270366004612a02565b6001600160a01b03919091166000908152600b60209081526040808320938352929052205490565b600154610100900460ff165b60405190151581526020016101fa565b6102166102c2366004612a02565b6105f2565b6102166102d5366004612a02565b6109d4565b6102166102e8366004612a2e565b610d5a565b6102546102fb366004612a02565b610db0565b600254610254565b610254610dd9565b61025461031e366004612979565b610e4c565b610254610331366004612979565b610ebb565b6101e6610344366004612979565b610edc565b60015460ff166102a4565b610216610362366004612979565b610f0f565b61037a610375366004612979565b6112bf565b6040516101fa93929190612a79565b6101e6610397366004612a9d565b611341565b6102a46103aa366004612979565b611373565b6102166103bd366004612b02565b6113e2565b6004546001600160a01b03166101e6565b6102166103e1366004612979565b6114b4565b6102546103f4366004612979565b6001600160a01b031660009081526008602052604090205490565b61021661041d366004612996565b611621565b610435610430366004612b8d565b611695565b604080519283526020830191909152016101fa565b610216610458366004612d0a565b61178c565b61021661046b366004612a02565b6117fa565b61021661047e366004612d7f565b611b7b565b600554604051620dee0f60e41b81526001600160a01b038381166004830152600092169062dee0f0906024015b602060405180830381865afa1580156104cd573d6000803e3d6000fd5b505050506040513d601f19601f820116820180604052508101906104f19190612edb565b92915050565b6005546001600160a01b0316331461050e57600080fd5b6001600160a01b03821660009081526009602052604081208054839290610536908490612f0e565b909155505060405163a9059cbb60e01b81526001600160a01b0384811660048301526024820183905283169063a9059cbb906044015b6020604051808303816000875af115801561058b573d6000803e3d6000fd5b505050506040513d601f19601f820116820180604052508101906105af9190612f25565b50505050565b6005546001600160a01b031633146105cc57600080fd5b60015460ff161515811515146105ef576001805460ff19811660ff909116151790555b50565b60015460ff1615801561060f57506004546001600160a01b031633145b8061062457506005546001600160a01b031633145b8061063957506003546001600160a01b031633145b61064257600080fd5b600160005b61064f610dd9565b8110156106ab5761068b600a600061066684611341565b6001600160a01b03166001600160a01b0316815260200190815260200160002061213a565b1561069957600091506106ab565b806106a381612f42565b915050610647565b508080156106c05750600154610100900460ff165b1561095e57600554604080516302b5b72960e41b815290516000926001600160a01b031691632b5b72909160048083019260209291908290030181865afa15801561070f573d6000803e3d6000fd5b505050506040513d601f19601f820116820180604052508101906107339190612f5b565b905060008060005b838110156108c15760055460405163256f2fdd60e11b8152600481018390526001600160a01b0390911690634ade5fba90602401602060405180830381865afa15801561078c573d6000803e3d6000fd5b505050506040513d601f19601f820116820180604052508101906107b09190612edb565b6001600160a01b0316638b0441e26040518163ffffffff1660e01b8152600401602060405180830381865afa1580156107ed573d6000803e3d6000fd5b505050506040513d601f19601f820116820180604052508101906108119190612edb565b6001600160a01b038116600090815260086020526040902054909250156108af57821561087b576001600160a01b03821660009081526008602090815260408083205460099092529091205461087491859161086f91601090612144565b612196565b92506108af565b6001600160a01b0382166000908152600860209081526040808320546009909252909120546108ac91601090612144565b92505b806108b981612f42565b91505061073b565b506201000082111561090a576108da6201000083612f0e565b600260008282546108eb9190612f74565b909155505060025462010000101561090557620100006002555b61095a565b6201000082101561095a576002546109258362010000612f0e565b1015610954576109388262010000612f0e565b600260008282546109499190612f0e565b9091555061095a9050565b60006002555b5050505b6001805461ff001916905560055460405163611cea6560e11b81526001600160a01b039091169063c239d4ca9061099d90339087908790600401612a79565b600060405180830381600087803b1580156109b757600080fd5b505af11580156109cb573d6000803e3d6000fd5b50505050505050565b60015460ff161580156109f157506004546001600160a01b031633145b80610a0657506005546001600160a01b031633145b80610a1b57506003546001600160a01b031633145b610a2457600080fd5b600160005b610a31610dd9565b811015610a6857610a48600a600061066684611341565b15610a565760009150610a68565b80610a6081612f42565b915050610a29565b50808015610a7d5750600154610100900460ff165b15610d1657600554604080516302b5b72960e41b815290516000926001600160a01b031691632b5b72909160048083019260209291908290030181865afa158015610acc573d6000803e3d6000fd5b505050506040513d601f19601f82011682018060405250810190610af09190612f5b565b905060008060005b83811015610c795760055460405163256f2fdd60e11b8152600481018390526001600160a01b0390911690634ade5fba90602401602060405180830381865afa158015610b49573d6000803e3d6000fd5b505050506040513d601f19601f82011682018060405250810190610b6d9190612edb565b6001600160a01b0316638b0441e26040518163ffffffff1660e01b8152600401602060405180830381865afa158015610baa573d6000803e3d6000fd5b505050506040513d601f19601f82011682018060405250810190610bce9190612edb565b6001600160a01b03811660009081526008602052604090205490925015610c67578215610c33576001600160a01b038216600090815260086020908152604080832054600990925290912054610c2c91859161086f91601090612144565b9250610c67565b6001600160a01b038216600090815260086020908152604080832054600990925290912054610c6491601090612144565b92505b80610c7181612f42565b915050610af8565b5062010000821115610cc257610c926201000083612f0e565b60026000828254610ca39190612f74565b9091555050600254620100001015610cbd57620100006002555b610d12565b62010000821015610d1257600254610cdd8362010000612f0e565b1015610d0c57610cf08262010000612f0e565b60026000828254610d019190612f0e565b90915550610d129050565b60006002555b5050505b6001805461ff00191690556005546040516307bc195360e31b81526001600160a01b0385811660048301526024820185905290911690633de0ca989060440161099d565b6005546001600160a01b03163314610d7157600080fd5b600380546001600160a01b039485166001600160a01b031991821617909155600480549385169382169390931790925560068054919093169116179055565b6001600160a01b0382166000908152600a60205260408120610dd290836121ae565b9392505050565b60055460408051631bba9a3d60e21b815290516000926001600160a01b031691636eea68f49160048083019260209291908290030181865afa158015610e23573d6000803e3d6000fd5b505050506040513d601f19601f82011682018060405250810190610e479190612f5b565b905090565b600554604051631d1ee02360e21b81526001600160a01b038381166004830152600092169063747b808c90602401602060405180830381865afa158015610e97573d6000803e3d6000fd5b505050506040513d601f19601f820116820180604052508101906104f19190612f5b565b6001600160a01b0381166000908152600a602052604081206104f19061213a565b600554604051637d2a16e960e01b81526001600160a01b0383811660048301526000921690637d2a16e9906024016104b0565b60015460ff16158015610f2c57506004546001600160a01b031633145b80610f4157506005546001600160a01b031633145b80610f5657506003546001600160a01b031633145b610f5f57600080fd5b600160005b610f6c610dd9565b811015610fa357610f83600a600061066684611341565b15610f915760009150610fa3565b80610f9b81612f42565b915050610f64565b50808015610fb85750600154610100900460ff165b1561125157600554604080516302b5b72960e41b815290516000926001600160a01b031691632b5b72909160048083019260209291908290030181865afa158015611007573d6000803e3d6000fd5b505050506040513d601f19601f8201168201806040525081019061102b9190612f5b565b905060008060005b838110156111b45760055460405163256f2fdd60e11b8152600481018390526001600160a01b0390911690634ade5fba90602401602060405180830381865afa158015611084573d6000803e3d6000fd5b505050506040513d601f19601f820116820180604052508101906110a89190612edb565b6001600160a01b0316638b0441e26040518163ffffffff1660e01b8152600401602060405180830381865afa1580156110e5573d6000803e3d6000fd5b505050506040513d601f19601f820116820180604052508101906111099190612edb565b6001600160a01b038116600090815260086020526040902054909250156111a257821561116e576001600160a01b03821660009081526008602090815260408083205460099092529091205461116791859161086f91601090612144565b92506111a2565b6001600160a01b03821660009081526008602090815260408083205460099092529091205461119f91601090612144565b92505b806111ac81612f42565b915050611033565b50620100008211156111fd576111cd6201000083612f0e565b600260008282546111de9190612f74565b90915550506002546201000010156111f857620100006002555b61124d565b6201000082101561124d576002546112188362010000612f0e565b10156112475761122b8262010000612f0e565b6002600082825461123c9190612f0e565b9091555061124d9050565b60006002555b5050505b6001805461ff0019169055600554604051635d1f70db60e11b81526001600160a01b0384811660048301529091169063ba3ee1b690602401600060405180830381600087803b1580156112a357600080fd5b505af11580156112b7573d6000803e3d6000fd5b505050505050565b60055460405163ac6427c160e01b81526001600160a01b038381166004830152600092839283929091169063ac6427c190602401606060405180830381865afa158015611310573d6000803e3d6000fd5b505050506040513d601f19601f820116820180604052508101906113349190612f8c565b9250925092509193909250565b600554604051634bd3783f60e11b8152600481018390526000916001600160a01b0316906397a6f07e906024016104b0565b6005546040516305bfa18160e51b81526001600160a01b038381166004830152600092169063b7f4302090602401602060405180830381865afa1580156113be573d6000803e3d6000fd5b505050506040513d601f19601f820116820180604052508101906104f19190612f25565b60015460ff161580156113ff57506004546001600160a01b031633145b8061141457506005546001600160a01b031633145b8061142957506003546001600160a01b031633145b61143257600080fd5b61143a6121ba565b6114aa8686868080602002602001604051908101604052809392919081815260200183836020028082843760009201919091525050604080516020808a02828101820190935289825290935089925088918291850190849080828437600092019190915250879250612213915050565b6112b76001600055565b60015460ff161580156114d157506004546001600160a01b031633145b806114e657506005546001600160a01b031633145b806114fb57506003546001600160a01b031633145b61150457600080fd5b6006546001600160a01b031661152d57604051630e3b3e1d60e11b815260040160405180910390fd5b6001600160a01b0381811660008181526007602052604090819020805460ff19166001179055600654905163095ea7b360e01b81529216600483015260001960248301529063095ea7b3906044016020604051808303816000875af115801561159a573d6000803e3d6000fd5b505050506040513d601f19601f820116820180604052508101906115be9190612f25565b5060055460405163429015bb60e01b81526001600160a01b0383811660048301529091169063429015bb90602401600060405180830381600087803b15801561160657600080fd5b505af115801561161a573d6000803e3d6000fd5b5050505050565b6005546001600160a01b0316331461163857600080fd5b6001600160a01b03821660009081526009602052604081208054839290611660908490612f74565b90915550506040516323b872dd60e01b81526001600160a01b038316906323b872dd9061056c90869030908690600401612a79565b60055460009081906001600160a01b031633146116b157600080fd5b60003087876040516024016116c893929190612fcf565b60408051601f198184030181529190526020810180516001600160e01b031663225b20b960e01b179052905060006117096001600160a01b038a1683612640565b90508080602001905181019061171f919061301c565b6001600160a01b03881660009081526009602052604081208054939750919550869261174c908490612f74565b90915550506001600160a01b03851660009081526009602052604081208054859290611779908490612f74565b9250508190555050509550959350505050565b6005546040516342c9026360e11b81526001600160a01b039091169063859204c6906117c290879087908790879060040161307b565b600060405180830381600087803b1580156117dc57600080fd5b505af11580156117f0573d6000803e3d6000fd5b5050505050505050565b60015460ff1615801561181757506004546001600160a01b031633145b8061182c57506005546001600160a01b031633145b8061184157506003546001600160a01b031633145b61184a57600080fd5b600160005b611857610dd9565b81101561188e5761186e600a600061066684611341565b1561187c576000915061188e565b8061188681612f42565b91505061184f565b508080156118a35750600154610100900460ff165b15611b3c57600554604080516302b5b72960e41b815290516000926001600160a01b031691632b5b72909160048083019260209291908290030181865afa1580156118f2573d6000803e3d6000fd5b505050506040513d601f19601f820116820180604052508101906119169190612f5b565b905060008060005b83811015611a9f5760055460405163256f2fdd60e11b8152600481018390526001600160a01b0390911690634ade5fba90602401602060405180830381865afa15801561196f573d6000803e3d6000fd5b505050506040513d601f19601f820116820180604052508101906119939190612edb565b6001600160a01b0316638b0441e26040518163ffffffff1660e01b8152600401602060405180830381865afa1580156119d0573d6000803e3d6000fd5b505050506040513d601f19601f820116820180604052508101906119f49190612edb565b6001600160a01b03811660009081526008602052604090205490925015611a8d578215611a59576001600160a01b038216600090815260086020908152604080832054600990925290912054611a5291859161086f91601090612144565b9250611a8d565b6001600160a01b038216600090815260086020908152604080832054600990925290912054611a8a91601090612144565b92505b80611a9781612f42565b91505061191e565b5062010000821115611ae857611ab86201000083612f0e565b60026000828254611ac99190612f74565b9091555050600254620100001015611ae357620100006002555b611b38565b62010000821015611b3857600254611b038362010000612f0e565b1015611b3257611b168262010000612f0e565b60026000828254611b279190612f0e565b90915550611b389050565b60006002555b5050505b6001805461ff0019169055600554604051636c370b1160e01b81526001600160a01b0390911690636c370b119061099d90339087908790600401612a79565b60015460ff16158015611b9857506004546001600160a01b031633145b80611bad57506005546001600160a01b031633145b80611bc257506003546001600160a01b031633145b611bcb57600080fd5b600160005b611bd8610dd9565b811015611c0f57611bef600a600061066684611341565b15611bfd5760009150611c0f565b80611c0781612f42565b915050611bd0565b50808015611c255750600154610100900460ff16155b15611dbd57600554604080516302b5b72960e41b815290516000926001600160a01b031691632b5b72909160048083019260209291908290030181865afa158015611c74573d6000803e3d6000fd5b505050506040513d601f19601f82011682018060405250810190611c989190612f5b565b905060005b81811015611dab5760055460405163256f2fdd60e11b8152600481018390526000916001600160a01b031690634ade5fba90602401602060405180830381865afa158015611cef573d6000803e3d6000fd5b505050506040513d601f19601f82011682018060405250810190611d139190612edb565b6001600160a01b0316638b0441e26040518163ffffffff1660e01b8152600401602060405180830381865afa158015611d50573d6000803e3d6000fd5b505050506040513d601f19601f82011682018060405250810190611d749190612edb565b6001600160a01b03166000908152600960209081526040808320546008909252909120555080611da381612f42565b915050611c9d565b50506001805461ff0019166101001790555b611dc56121ba565b611dce83611373565b1515600003611df057604051631c44f54960e31b815260040160405180910390fd5b611df9836112bf565b6040808601919091526001600160a01b03918216602080870191909152929091168085526000908152600790925290205460ff16611e3c578151611e3c906114b4565b6020808301516001600160a01b031660009081526007909152604090205460ff16611e6e57611e6e82602001516114b4565b30610180830152604051600090611e899084906024016130b6565b60408051601f198184030181529190526020810180516001600160e01b03166338c928f960e21b179052600654909150600090611ecf906001600160a01b031683612640565b905060008082806020019051810190611ee89190613228565b9150915060005b8251811015612017576001600160a01b0388166000908152600b602052604081208451909190859084908110611f2757611f2761328c565b6020026020010151815260200190815260200160002054600003611f8757611f85838281518110611f5a57611f5a61328c565b6020908102919091018101516001600160a01b038b166000908152600a909252604090912090612716565b505b818181518110611f9957611f9961328c565b6020026020010151600b60008a6001600160a01b03166001600160a01b031681526020019081526020016000206000858481518110611fda57611fda61328c565b602002602001015181526020019081526020016000206000828254611fff9190612f74565b9091555081905061200f81612f42565b915050611eef565b5085516040516370a0823160e01b81523060048201526001600160a01b03909116906370a0823190602401602060405180830381865afa15801561205f573d6000803e3d6000fd5b505050506040513d601f19601f820116820180604052508101906120839190612f5b565b86516001600160a01b03908116600090815260096020908152604091829020939093559188015191516370a0823160e01b81523060048201529116906370a0823190602401602060405180830381865afa1580156120e5573d6000803e3d6000fd5b505050506040513d601f19601f820116820180604052508101906121099190612f5b565b6020808801516001600160a01b0316600090815260099091526040902055506121359250612639915050565b505050565b60006104f1825490565b600060ff83111561217057604051630b72ecf560e41b8152600481018490526024015b60405180910390fd5b83831b61010084900385901c61218c866001871b868585612722565b9695505050505050565b6000818310156121a75750816104f1565b50806104f1565b6000610dd283836127dc565b60026000540361220c5760405162461bcd60e51b815260206004820152601f60248201527f5265656e7472616e637947756172643a207265656e7472616e742063616c6c006044820152606401612167565b6002600055565b61221c84611373565b151560000361223e57604051631c44f54960e31b815260040160405180910390fd5b60065460405163e985e9c560e01b81523060048201526001600160a01b0391821660248201529085169063e985e9c590604401602060405180830381865afa15801561228e573d6000803e3d6000fd5b505050506040513d601f19601f820116820180604052508101906122b29190612f25565b61231d5760065460405163a22cb46560e01b81526001600160a01b039182166004820152600160248201529085169063a22cb46590604401600060405180830381600087803b15801561230457600080fd5b505af1158015612318573d6000803e3d6000fd5b505050505b600080600061232b876112bf565b6005546040516342c9026360e11b815293965091945092506001600160a01b03169063859204c690612367908a908a908890889060040161307b565b600060405180830381600087803b15801561238157600080fd5b505af1158015612395573d6000803e3d6000fd5b5050505060008383836000808b8b308c6040516024016123bd999897969594939291906132a2565b60408051601f198184030181529190526020810180516001600160e01b0316636110acdb60e11b179052600654909150612400906001600160a01b031682612640565b5060005b875181101561252b5786818151811061241f5761241f61328c565b6020026020010151600b60008b6001600160a01b03166001600160a01b0316815260200190815260200160002060008a84815181106124605761246061328c565b6020026020010151815260200190815260200160002060008282546124859190612f0e565b90915550506001600160a01b0389166000908152600b6020526040812089519091908a90849081106124b9576124b961328c565b6020026020010151815260200190815260200160002054600003612519576125178882815181106124ec576124ec61328c565b6020908102919091018101516001600160a01b038c166000908152600a909252604090912090612806565b505b8061252381612f42565b915050612404565b506040516370a0823160e01b81523060048201526001600160a01b038516906370a0823190602401602060405180830381865afa158015612570573d6000803e3d6000fd5b505050506040513d601f19601f820116820180604052508101906125949190612f5b565b6001600160a01b03858116600090815260096020526040908190209290925590516370a0823160e01b8152306004820152908416906370a0823190602401602060405180830381865afa1580156125ef573d6000803e3d6000fd5b505050506040513d601f19601f820116820180604052508101906126139190612f5b565b6001600160a01b0390931660009081526009602052604090209290925550505050505050565b6001600055565b6060600080846001600160a01b03168460405161265d9190613318565b6000604051808303816000865af19150503d806000811461269a576040519150601f19603f3d011682016040523d82523d6000602084013e61269f565b606091505b509150915081156126e45780511580156126c157506001600160a01b0385163b155b156126df5760405163363dbc3960e01b815260040160405180910390fd5b61270e565b80516000036127065760405163a0856a6160e01b815260040160405180910390fd5b805181602001fd5b949350505050565b6000610dd28383612812565b6000816000036127435783838161273b5761273b613353565b0490506127d3565b83821061276d5760405163656b542b60e11b81526004810183905260248101859052604401612167565b60008486880960018619810187169687900496600081900381900490910186831190950394850291909503949094049390931792505060026003840281188085028203028085028203028085028203028085028203028085028203028085029091030282025b95945050505050565b60008260000182815481106127f3576127f361328c565b9060005260206000200154905092915050565b6000610dd28383612861565b6000818152600183016020526040812054612859575081546001818101845560008481526020808220909301849055845484825282860190935260409020919091556104f1565b5060006104f1565b6000818152600183016020526040812054801561294a576000612885600183612f0e565b855490915060009061289990600190612f0e565b90508181146128fe5760008660000182815481106128b9576128b961328c565b90600052602060002001549050808760000184815481106128dc576128dc61328c565b6000918252602080832090910192909255918252600188019052604090208390555b855486908061290f5761290f613369565b6001900381819060005260206000200160009055905585600101600086815260200190815260200160002060009055600193505050506104f1565b60009150506104f1565b6001600160a01b03811681146105ef57600080fd5b803561297481612954565b919050565b60006020828403121561298b57600080fd5b8135610dd281612954565b6000806000606084860312156129ab57600080fd5b83356129b681612954565b925060208401356129c681612954565b929592945050506040919091013590565b80151581146105ef57600080fd5b6000602082840312156129f757600080fd5b8135610dd2816129d7565b60008060408385031215612a1557600080fd5b8235612a2081612954565b946020939093013593505050565b600080600060608486031215612a4357600080fd5b8335612a4e81612954565b92506020840135612a5e81612954565b91506040840135612a6e81612954565b809150509250925092565b6001600160a01b039384168152919092166020820152604081019190915260600190565b600060208284031215612aaf57600080fd5b5035919050565b60008083601f840112612ac857600080fd5b50813567ffffffffffffffff811115612ae057600080fd5b6020830191508360208260051b8501011115612afb57600080fd5b9250929050565b60008060008060008060808789031215612b1b57600080fd5b8635612b2681612954565b9550602087013567ffffffffffffffff80821115612b4357600080fd5b612b4f8a838b01612ab6565b90975095506040890135915080821115612b6857600080fd5b50612b7589828a01612ab6565b979a9699509497949695606090950135949350505050565b600080600080600060808688031215612ba557600080fd5b8535612bb081612954565b9450602086013567ffffffffffffffff811115612bcc57600080fd5b612bd888828901612ab6565b9095509350506040860135612bec81612954565b91506060860135612bfc81612954565b809150509295509295909350565b634e487b7160e01b600052604160045260246000fd5b6040516101c0810167ffffffffffffffff81118282101715612c4457612c44612c0a565b60405290565b604051601f8201601f1916810167ffffffffffffffff81118282101715612c7357612c73612c0a565b604052919050565b600067ffffffffffffffff821115612c9557612c95612c0a565b5060051b60200190565b600082601f830112612cb057600080fd5b81356020612cc5612cc083612c7b565b612c4a565b82815260059290921b84018101918181019086841115612ce457600080fd5b8286015b84811015612cff5780358352918301918301612ce8565b509695505050505050565b60008060008060808587031215612d2057600080fd5b8435612d2b81612954565b9350602085013567ffffffffffffffff811115612d4757600080fd5b612d5387828801612c9f565b9350506040850135612d6481612954565b91506060850135612d7481612954565b939692955090935050565b60008060408385031215612d9257600080fd5b8235612d9d81612954565b9150602083013567ffffffffffffffff80821115612dba57600080fd5b908401906101c08287031215612dcf57600080fd5b612dd7612c20565b612de083612969565b8152612dee60208401612969565b602082015260408301356040820152606083013560608201526080830135608082015260a083013560a082015260c083013560c082015260e083013560e08201526101008084013581830152506101208084013583811115612e4f57600080fd5b612e5b89828701612c9f565b8284015250506101408084013583811115612e7557600080fd5b612e8189828701612c9f565b8284015250506101608084013583811115612e9b57600080fd5b612ea789828701612c9f565b8284015250506101809150612ebd828401612969565b828201526101a0915081830135828201528093505050509250929050565b600060208284031215612eed57600080fd5b8151610dd281612954565b634e487b7160e01b600052601160045260246000fd5b600082821015612f2057612f20612ef8565b500390565b600060208284031215612f3757600080fd5b8151610dd2816129d7565b600060018201612f5457612f54612ef8565b5060010190565b600060208284031215612f6d57600080fd5b5051919050565b60008219821115612f8757612f87612ef8565b500190565b600080600060608486031215612fa157600080fd5b8351612fac81612954565b6020850151909350612fbd81612954565b80925050604084015190509250925092565b6001600160a01b0384168152604060208201819052810182905260006001600160fb1b03831115612fff57600080fd5b8260051b8085606085013760009201606001918252509392505050565b6000806040838503121561302f57600080fd5b505080516020909101519092909150565b600081518084526020808501945080840160005b8381101561307057815187529582019590820190600101613054565b509495945050505050565b600060018060a01b0380871683526080602084015261309d6080840187613040565b9481166040840152929092166060909101525092915050565b602081526130d06020820183516001600160a01b03169052565b600060208301516130ec60408401826001600160a01b03169052565b506040830151606083015260608301516080830152608083015160a083015260a083015160c083015260c083015160e083015260e08301516101008181850152808501519150506101208181850152808501519150506101c0610140818186015261315b6101e0860184613040565b9250808601519050601f1961016081878603018188015261317c8584613040565b94508088015192505061018081878603018188015261319b8584613040565b945080880151925050506101a06131bc818701836001600160a01b03169052565b959095015193019290925250919050565b600082601f8301126131de57600080fd5b815160206131ee612cc083612c7b565b82815260059290921b8401810191818101908684111561320d57600080fd5b8286015b84811015612cff5780518352918301918301613211565b6000806040838503121561323b57600080fd5b825167ffffffffffffffff8082111561325357600080fd5b61325f868387016131cd565b9350602085015191508082111561327557600080fd5b50613282858286016131cd565b9150509250929050565b634e487b7160e01b600052603260045260246000fd5b6001600160a01b038a81168252898116602083015261ffff8916604083015260ff88811660608401528716608083015261012060a083018190526000916132eb84830189613040565b915083820360c08501526132ff8288613040565b951660e084015250506101000152979650505050505050565b6000825160005b81811015613339576020818601810151858301520161331f565b81811115613348576000828501525b509190910192915050565b634e487b7160e01b600052601260045260246000fd5b634e487b7160e01b600052603160045260246000fdfea2646970667358221220f190b81a4311b54d7ea074d2305f8c82738681b33426706283c8542a74e6b31764736f6c634300080f0033",
  "bytecodeSha1": "aad749665b5f40863fa992b4ec6c2ee4e380c988",
  "compiler": {
    "evm_version": "istanbul",
    "optimizer": {
      "enabled": true,
      "runs": 200
    },
    "version": "0.8.15+commit.e14f2714"
  },
  "contractName": "ManagerAccount",
  "language": "Solidity",
  "natspec": {
    "errors": {
      "LowLevelCall__NonContract()": [
        {
          "notice": "LowLevelCall errors "
        }
      ],
      "Math512Bits__MulDivOverflow(uint256,uint256)": [
        {
          "notice": "Math512Bits errors "
        }
      ]
    },
    "kind": "dev",
    "methods": {
      "getMMLBPairToIdToAmount(address,uint256)": {
        "notice": "storage can be returned from internal function, not public view"
      }
    },
    "version": 1
  },
  "opcodes": "PUSH1 0x80 PUSH1 0x40 MSTORE CALLVALUE DUP1 ISZERO PUSH2 0x10 JUMPI PUSH1 0x0 DUP1 REVERT JUMPDEST POP PUSH1 0x4 CALLDATASIZE LT PUSH2 0x1CE JUMPI PUSH1 0x0 CALLDATALOAD PUSH1 0xE0 SHR DUP1 PUSH4 0x7D2A16E9 GT PUSH2 0x104 JUMPI DUP1 PUSH4 0xD5009584 GT PUSH2 0xA2 JUMPI DUP1 PUSH4 0xE5EA2C7E GT PUSH2 0x71 JUMPI DUP1 PUSH4 0xE5EA2C7E EQ PUSH2 0x422 JUMPI DUP1 PUSH4 0xEFD5DB2C EQ PUSH2 0x44A JUMPI DUP1 PUSH4 0xF3FEF3A3 EQ PUSH2 0x45D JUMPI DUP1 PUSH4 0xFDFE0456 EQ PUSH2 0x470 JUMPI PUSH1 0x0 DUP1 REVERT JUMPDEST DUP1 PUSH4 0xD5009584 EQ PUSH2 0x3C2 JUMPI DUP1 PUSH4 0xDA99F4BB EQ PUSH2 0x3D3 JUMPI DUP1 PUSH4 0xDAD9FC1A EQ PUSH2 0x3E6 JUMPI DUP1 PUSH4 0xE4652F49 EQ PUSH2 0x40F JUMPI PUSH1 0x0 DUP1 REVERT JUMPDEST DUP1 PUSH4 0xAC6427C1 GT PUSH2 0xDE JUMPI DUP1 PUSH4 0xAC6427C1 EQ PUSH2 0x367 JUMPI DUP1 PUSH4 0xB7B9AE1A EQ PUSH2 0x389 JUMPI DUP1 PUSH4 0xB7F43020 EQ PUSH2 0x39C JUMPI DUP1 PUSH4 0xC2D5A4E7 EQ PUSH2 0x3AF JUMPI PUSH1 0x0 DUP1 REVERT JUMPDEST DUP1 PUSH4 0x7D2A16E9 EQ PUSH2 0x336 JUMPI DUP1 PUSH4 0x9EBD43F9 EQ PUSH2 0x349 JUMPI DUP1 PUSH4 0x9F7C73E9 EQ PUSH2 0x354 JUMPI PUSH1 0x0 DUP1 REVERT JUMPDEST DUP1 PUSH4 0x4B8A3529 GT PUSH2 0x171 JUMPI DUP1 PUSH4 0x59296E7B GT PUSH2 0x14B JUMPI DUP1 PUSH4 0x59296E7B EQ PUSH2 0x300 JUMPI DUP1 PUSH4 0x65308B8D EQ PUSH2 0x308 JUMPI DUP1 PUSH4 0x747B808C EQ PUSH2 0x310 JUMPI DUP1 PUSH4 0x7887CBD6 EQ PUSH2 0x323 JUMPI PUSH1 0x0 DUP1 REVERT JUMPDEST DUP1 PUSH4 0x4B8A3529 EQ PUSH2 0x2C7 JUMPI DUP1 PUSH4 0x4F422CA9 EQ PUSH2 0x2DA JUMPI DUP1 PUSH4 0x5893021E EQ PUSH2 0x2ED JUMPI PUSH1 0x0 DUP1 REVERT JUMPDEST DUP1 PUSH4 0xBBF3CF5 GT PUSH2 0x1AD JUMPI DUP1 PUSH4 0xBBF3CF5 EQ PUSH2 0x22B JUMPI DUP1 PUSH4 0x1536ACB6 EQ PUSH2 0x262 JUMPI DUP1 PUSH4 0x250E8873 EQ PUSH2 0x298 JUMPI DUP1 PUSH4 0x47E7EF24 EQ PUSH2 0x2B4 JUMPI PUSH1 0x0 DUP1 REVERT JUMPDEST DUP1 PUSH3 0xDEE0F0 EQ PUSH2 0x1D3 JUMPI DUP1 PUSH4 0x78D3B79 EQ PUSH2 0x203 JUMPI DUP1 PUSH4 0xB6BF49A EQ PUSH2 0x218 JUMPI JUMPDEST PUSH1 0x0 DUP1 REVERT JUMPDEST PUSH2 0x1E6 PUSH2 0x1E1 CALLDATASIZE PUSH1 0x4 PUSH2 0x2979 JUMP JUMPDEST PUSH2 0x483 JUMP JUMPDEST PUSH1 0x40 MLOAD PUSH1 0x1 PUSH1 0x1 PUSH1 0xA0 SHL SUB SWAP1 SWAP2 AND DUP2 MSTORE PUSH1 0x20 ADD JUMPDEST PUSH1 0x40 MLOAD DUP1 SWAP2 SUB SWAP1 RETURN JUMPDEST PUSH2 0x216 PUSH2 0x211 CALLDATASIZE PUSH1 0x4 PUSH2 0x2996 JUMP JUMPDEST PUSH2 0x4F7 JUMP JUMPDEST STOP JUMPDEST PUSH2 0x216 PUSH2 0x226 CALLDATASIZE PUSH1 0x4 PUSH2 0x29E5 JUMP JUMPDEST PUSH2 0x5B5 JUMP JUMPDEST PUSH2 0x254 PUSH2 0x239 CALLDATASIZE PUSH1 0x4 PUSH2 0x2979 JUMP JUMPDEST PUSH1 0x1 PUSH1 0x1 PUSH1 0xA0 SHL SUB AND PUSH1 0x0 SWAP1 DUP2 MSTORE PUSH1 0x9 PUSH1 0x20 MSTORE PUSH1 0x40 SWAP1 KECCAK256 SLOAD SWAP1 JUMP JUMPDEST PUSH1 0x40 MLOAD SWAP1 DUP2 MSTORE PUSH1 0x20 ADD PUSH2 0x1FA JUMP JUMPDEST PUSH2 0x254 PUSH2 0x270 CALLDATASIZE PUSH1 0x4 PUSH2 0x2A02 JUMP JUMPDEST PUSH1 0x1 PUSH1 0x1 PUSH1 0xA0 SHL SUB SWAP2 SWAP1 SWAP2 AND PUSH1 0x0 SWAP1 DUP2 MSTORE PUSH1 0xB PUSH1 0x20 SWAP1 DUP2 MSTORE PUSH1 0x40 DUP1 DUP4 KECCAK256 SWAP4 DUP4 MSTORE SWAP3 SWAP1 MSTORE KECCAK256 SLOAD SWAP1 JUMP JUMPDEST PUSH1 0x1 SLOAD PUSH2 0x100 SWAP1 DIV PUSH1 0xFF AND JUMPDEST PUSH1 0x40 MLOAD SWAP1 ISZERO ISZERO DUP2 MSTORE PUSH1 0x20 ADD PUSH2 0x1FA JUMP JUMPDEST PUSH2 0x216 PUSH2 0x2C2 CALLDATASIZE PUSH1 0x4 PUSH2 0x2A02 JUMP JUMPDEST PUSH2 0x5F2 JUMP JUMPDEST PUSH2 0x216 PUSH2 0x2D5 CALLDATASIZE PUSH1 0x4 PUSH2 0x2A02 JUMP JUMPDEST PUSH2 0x9D4 JUMP JUMPDEST PUSH2 0x216 PUSH2 0x2E8 CALLDATASIZE PUSH1 0x4 PUSH2 0x2A2E JUMP JUMPDEST PUSH2 0xD5A JUMP JUMPDEST PUSH2 0x254 PUSH2 0x2FB CALLDATASIZE PUSH1 0x4 PUSH2 0x2A02 JUMP JUMPDEST PUSH2 0xDB0 JUMP JUMPDEST PUSH1 0x2 SLOAD PUSH2 0x254 JUMP JUMPDEST PUSH2 0x254 PUSH2 0xDD9 JUMP JUMPDEST PUSH2 0x254 PUSH2 0x31E CALLDATASIZE PUSH1 0x4 PUSH2 0x2979 JUMP JUMPDEST PUSH2 0xE4C JUMP JUMPDEST PUSH2 0x254 PUSH2 0x331 CALLDATASIZE PUSH1 0x4 PUSH2 0x2979 JUMP JUMPDEST PUSH2 0xEBB JUMP JUMPDEST PUSH2 0x1E6 PUSH2 0x344 CALLDATASIZE PUSH1 0x4 PUSH2 0x2979 JUMP JUMPDEST PUSH2 0xEDC JUMP JUMPDEST PUSH1 0x1 SLOAD PUSH1 0xFF AND PUSH2 0x2A4 JUMP JUMPDEST PUSH2 0x216 PUSH2 0x362 CALLDATASIZE PUSH1 0x4 PUSH2 0x2979 JUMP JUMPDEST PUSH2 0xF0F JUMP JUMPDEST PUSH2 0x37A PUSH2 0x375 CALLDATASIZE PUSH1 0x4 PUSH2 0x2979 JUMP JUMPDEST PUSH2 0x12BF JUMP JUMPDEST PUSH1 0x40 MLOAD PUSH2 0x1FA SWAP4 SWAP3 SWAP2 SWAP1 PUSH2 0x2A79 JUMP JUMPDEST PUSH2 0x1E6 PUSH2 0x397 CALLDATASIZE PUSH1 0x4 PUSH2 0x2A9D JUMP JUMPDEST PUSH2 0x1341 JUMP JUMPDEST PUSH2 0x2A4 PUSH2 0x3AA CALLDATASIZE PUSH1 0x4 PUSH2 0x2979 JUMP JUMPDEST PUSH2 0x1373 JUMP JUMPDEST PUSH2 0x216 PUSH2 0x3BD CALLDATASIZE PUSH1 0x4 PUSH2 0x2B02 JUMP JUMPDEST PUSH2 0x13E2 JUMP JUMPDEST PUSH1 0x4 SLOAD PUSH1 0x1 PUSH1 0x1 PUSH1 0xA0 SHL SUB AND PUSH2 0x1E6 JUMP JUMPDEST PUSH2 0x216 PUSH2 0x3E1 CALLDATASIZE PUSH1 0x4 PUSH2 0x2979 JUMP JUMPDEST PUSH2 0x14B4 JUMP JUMPDEST PUSH2 0x254 PUSH2 0x3F4 CALLDATASIZE PUSH1 0x4 PUSH2 0x2979 JUMP JUMPDEST PUSH1 0x1 PUSH1 0x1 PUSH1 0xA0 SHL SUB AND PUSH1 0x0 SWAP1 DUP2 MSTORE PUSH1 0x8 PUSH1 0x20 MSTORE PUSH1 0x40 SWAP1 KECCAK256 SLOAD SWAP1 JUMP JUMPDEST PUSH2 0x216 PUSH2 0x41D CALLDATASIZE PUSH1 0x4 PUSH2 0x2996 JUMP JUMPDEST PUSH2 0x1621 JUMP JUMPDEST PUSH2 0x435 PUSH2 0x430 CALLDATASIZE PUSH1 0x4 PUSH2 0x2B8D JUMP JUMPDEST PUSH2 0x1695 JUMP JUMPDEST PUSH1 0x40 DUP1 MLOAD SWAP3 DUP4 MSTORE PUSH1 0x20 DUP4 ADD SWAP2 SWAP1 SWAP2 MSTORE ADD PUSH2 0x1FA JUMP JUMPDEST PUSH2 0x216 PUSH2 0x458 CALLDATASIZE PUSH1 0x4 PUSH2 0x2D0A JUMP JUMPDEST PUSH2 0x178C JUMP JUMPDEST PUSH2 0x216 PUSH2 0x46B CALLDATASIZE PUSH1 0x4 PUSH2 0x2A02 JUMP JUMPDEST PUSH2 0x17FA JUMP JUMPDEST PUSH2 0x216 PUSH2 0x47E CALLDATASIZE PUSH1 0x4 PUSH2 0x2D7F JUMP JUMPDEST PUSH2 0x1B7B JUMP JUMPDEST PUSH1 0x5 SLOAD PUSH1 0x40 MLOAD PUSH3 0xDEE0F PUSH1 0xE4 SHL DUP2 MSTORE PUSH1 0x1 PUSH1 0x1 PUSH1 0xA0 SHL SUB DUP4 DUP2 AND PUSH1 0x4 DUP4 ADD MSTORE PUSH1 0x0 SWAP3 AND SWAP1 PUSH3 0xDEE0F0 SWAP1 PUSH1 0x24 ADD JUMPDEST PUSH1 0x20 PUSH1 0x40 MLOAD DUP1 DUP4 SUB DUP2 DUP7 GAS STATICCALL ISZERO DUP1 ISZERO PUSH2 0x4CD JUMPI RETURNDATASIZE PUSH1 0x0 DUP1 RETURNDATACOPY RETURNDATASIZE PUSH1 0x0 REVERT JUMPDEST POP POP POP POP PUSH1 0x40 MLOAD RETURNDATASIZE PUSH1 0x1F NOT PUSH1 0x1F DUP3 ADD AND DUP3 ADD DUP1 PUSH1 0x40 MSTORE POP DUP2 ADD SWAP1 PUSH2 0x4F1 SWAP2 SWAP1 PUSH2 0x2EDB JUMP JUMPDEST SWAP3 SWAP2 POP POP JUMP JUMPDEST PUSH1 0x5 SLOAD PUSH1 0x1 PUSH1 0x1 PUSH1 0xA0 SHL SUB AND CALLER EQ PUSH2 0x50E JUMPI PUSH1 0x0 DUP1 REVERT JUMPDEST PUSH1 0x1 PUSH1 0x1 PUSH1 0xA0 SHL SUB DUP3 AND PUSH1 0x0 SWAP1 DUP2 MSTORE PUSH1 0x9 PUSH1 0x20 MSTORE PUSH1 0x40 DUP2 KECCAK256 DUP1 SLOAD DUP4 SWAP3 SWAP1 PUSH2 0x536 SWAP1 DUP5 SWAP1 PUSH2 0x2F0E JUMP JUMPDEST SWAP1 SWAP2 SSTORE POP POP PUSH1 0x40 MLOAD PUSH4 0xA9059CBB PUSH1 0xE0 SHL DUP2 MSTORE PUSH1 0x1 PUSH1 0x1 PUSH1 0xA0 SHL SUB DUP5 DUP2 AND PUSH1 0x4 DUP4 ADD MSTORE PUSH1 0x24 DUP3 ADD DUP4 SWAP1 MSTORE DUP4 AND SWAP1 PUSH4 0xA9059CBB SWAP1 PUSH1 0x44 ADD JUMPDEST PUSH1 0x20 PUSH1 0x40 MLOAD DUP1 DUP4 SUB DUP2 PUSH1 0x0 DUP8 GAS CALL ISZERO DUP1 ISZERO PUSH2 0x58B JUMPI RETURNDATASIZE PUSH1 0x0 DUP1 RETURNDATACOPY RETURNDATASIZE PUSH1 0x0 REVERT JUMPDEST POP POP POP POP PUSH1 0x40 MLOAD RETURNDATASIZE PUSH1 0x1F NOT PUSH1 0x1F DUP3 ADD AND DUP3 ADD DUP1 PUSH1 0x40 MSTORE POP DUP2 ADD SWAP1 PUSH2 0x5AF SWAP2 SWAP1 PUSH2 0x2F25 JUMP JUMPDEST POP POP POP POP JUMP JUMPDEST PUSH1 0x5 SLOAD PUSH1 0x1 PUSH1 0x1 PUSH1 0xA0 SHL SUB AND CALLER EQ PUSH2 0x5CC JUMPI PUSH1 0x0 DUP1 REVERT JUMPDEST PUSH1 0x1 SLOAD PUSH1 0xFF AND ISZERO ISZERO DUP2 ISZERO ISZERO EQ PUSH2 0x5EF JUMPI PUSH1 0x1 DUP1 SLOAD PUSH1 0xFF NOT DUP2 AND PUSH1 0xFF SWAP1 SWAP2 AND ISZERO OR SWAP1 SSTORE JUMPDEST POP JUMP JUMPDEST PUSH1 0x1 SLOAD PUSH1 0xFF AND ISZERO DUP1 ISZERO PUSH2 0x60F JUMPI POP PUSH1 0x4 SLOAD PUSH1 0x1 PUSH1 0x1 PUSH1 0xA0 SHL SUB AND CALLER EQ JUMPDEST DUP1 PUSH2 0x624 JUMPI POP PUSH1 0x5 SLOAD PUSH1 0x1 PUSH1 0x1 PUSH1 0xA0 SHL SUB AND CALLER EQ JUMPDEST DUP1 PUSH2 0x639 JUMPI POP PUSH1 0x3 SLOAD PUSH1 0x1 PUSH1 0x1 PUSH1 0xA0 SHL SUB AND CALLER EQ JUMPDEST PUSH2 0x642 JUMPI PUSH1 0x0 DUP1 REVERT JUMPDEST PUSH1 0x1 PUSH1 0x0 JUMPDEST PUSH2 0x64F PUSH2 0xDD9 JUMP JUMPDEST DUP2 LT ISZERO PUSH2 0x6AB JUMPI PUSH2 0x68B PUSH1 0xA PUSH1 0x0 PUSH2 0x666 DUP5 PUSH2 0x1341 JUMP JUMPDEST PUSH1 0x1 PUSH1 0x1 PUSH1 0xA0 SHL SUB AND PUSH1 0x1 PUSH1 0x1 PUSH1 0xA0 SHL SUB AND DUP2 MSTORE PUSH1 0x20 ADD SWAP1 DUP2 MSTORE PUSH1 0x20 ADD PUSH1 0x0 KECCAK256 PUSH2 0x213A JUMP JUMPDEST ISZERO PUSH2 0x699 JUMPI PUSH1 0x0 SWAP2 POP PUSH2 0x6AB JUMP JUMPDEST DUP1 PUSH2 0x6A3 DUP2 PUSH2 0x2F42 JUMP JUMPDEST SWAP2 POP POP PUSH2 0x647 JUMP JUMPDEST POP DUP1 DUP1 ISZERO PUSH2 0x6C0 JUMPI POP PUSH1 0x1 SLOAD PUSH2 0x100 SWAP1 DIV PUSH1 0xFF AND JUMPDEST ISZERO PUSH2 0x95E JUMPI PUSH1 0x5 SLOAD PUSH1 0x40 DUP1 MLOAD PUSH4 0x2B5B729 PUSH1 0xE4 SHL DUP2 MSTORE SWAP1 MLOAD PUSH1 0x0 SWAP3 PUSH1 0x1 PUSH1 0x1 PUSH1 0xA0 SHL SUB AND SWAP2 PUSH4 0x2B5B7290 SWAP2 PUSH1 0x4 DUP1 DUP4 ADD SWAP3 PUSH1 0x20 SWAP3 SWAP2 SWAP1 DUP3 SWAP1 SUB ADD DUP2 DUP7 GAS STATICCALL ISZERO DUP1 ISZERO PUSH2 0x70F JUMPI RETURNDATASIZE PUSH1 0x0 DUP1 RETURNDATACOPY RETURNDATASIZE PUSH1 0x0 REVERT JUMPDEST POP POP POP POP PUSH1 0x40 MLOAD RETURNDATASIZE PUSH1 0x1F NOT PUSH1 0x1F DUP3 ADD AND DUP3 ADD DUP1 PUSH1 0x40 MSTORE POP DUP2 ADD SWAP1 PUSH2 0x733 SWAP2 SWAP1 PUSH2 0x2F5B JUMP JUMPDEST SWAP1 POP PUSH1 0x0 DUP1 PUSH1 0x0 JUMPDEST DUP4 DUP2 LT ISZERO PUSH2 0x8C1 JUMPI PUSH1 0x5 SLOAD PUSH1 0x40 MLOAD PUSH4 0x256F2FDD PUSH1 0xE1 SHL DUP2 MSTORE PUSH1 0x4 DUP2 ADD DUP4 SWAP1 MSTORE PUSH1 0x1 PUSH1 0x1 PUSH1 0xA0 SHL SUB SWAP1 SWAP2 AND SWAP1 PUSH4 0x4ADE5FBA SWAP1 PUSH1 0x24 ADD PUSH1 0x20 PUSH1 0x40 MLOAD DUP1 DUP4 SUB DUP2 DUP7 GAS STATICCALL ISZERO DUP1 ISZERO PUSH2 0x78C JUMPI RETURNDATASIZE PUSH1 0x0 DUP1 RETURNDATACOPY RETURNDATASIZE PUSH1 0x0 REVERT JUMPDEST POP POP POP POP PUSH1 0x40 MLOAD RETURNDATASIZE PUSH1 0x1F NOT PUSH1 0x1F DUP3 ADD AND DUP3 ADD DUP1 PUSH1 0x40 MSTORE POP DUP2 ADD SWAP1 PUSH2 0x7B0 SWAP2 SWAP1 PUSH2 0x2EDB JUMP JUMPDEST PUSH1 0x1 PUSH1 0x1 PUSH1 0xA0 SHL SUB AND PUSH4 0x8B0441E2 PUSH1 0x40 MLOAD DUP2 PUSH4 0xFFFFFFFF AND PUSH1 0xE0 SHL DUP2 MSTORE PUSH1 0x4 ADD PUSH1 0x20 PUSH1 0x40 MLOAD DUP1 DUP4 SUB DUP2 DUP7 GAS STATICCALL ISZERO DUP1 ISZERO PUSH2 0x7ED JUMPI RETURNDATASIZE PUSH1 0x0 DUP1 RETURNDATACOPY RETURNDATASIZE PUSH1 0x0 REVERT JUMPDEST POP POP POP POP PUSH1 0x40 MLOAD RETURNDATASIZE PUSH1 0x1F NOT PUSH1 0x1F DUP3 ADD AND DUP3 ADD DUP1 PUSH1 0x40 MSTORE POP DUP2 ADD SWAP1 PUSH2 0x811 SWAP2 SWAP1 PUSH2 0x2EDB JUMP JUMPDEST PUSH1 0x1 PUSH1 0x1 PUSH1 0xA0 SHL SUB DUP2 AND PUSH1 0x0 SWAP1 DUP2 MSTORE PUSH1 0x8 PUSH1 0x20 MSTORE PUSH1 0x40 SWAP1 KECCAK256 SLOAD SWAP1 SWAP3 POP ISZERO PUSH2 0x8AF JUMPI DUP3 ISZERO PUSH2 0x87B JUMPI PUSH1 0x1 PUSH1 0x1 PUSH1 0xA0 SHL SUB DUP3 AND PUSH1 0x0 SWAP1 DUP2 MSTORE PUSH1 0x8 PUSH1 0x20 SWAP1 DUP2 MSTORE PUSH1 0x40 DUP1 DUP4 KECCAK256 SLOAD PUSH1 0x9 SWAP1 SWAP3 MSTORE SWAP1 SWAP2 KECCAK256 SLOAD PUSH2 0x874 SWAP2 DUP6 SWAP2 PUSH2 0x86F SWAP2 PUSH1 0x10 SWAP1 PUSH2 0x2144 JUMP JUMPDEST PUSH2 0x2196 JUMP JUMPDEST SWAP3 POP PUSH2 0x8AF JUMP JUMPDEST PUSH1 0x1 PUSH1 0x1 PUSH1 0xA0 SHL SUB DUP3 AND PUSH1 0x0 SWAP1 DUP2 MSTORE PUSH1 0x8 PUSH1 0x20 SWAP1 DUP2 MSTORE PUSH1 0x40 DUP1 DUP4 KECCAK256 SLOAD PUSH1 0x9 SWAP1 SWAP3 MSTORE SWAP1 SWAP2 KECCAK256 SLOAD PUSH2 0x8AC SWAP2 PUSH1 0x10 SWAP1 PUSH2 0x2144 JUMP JUMPDEST SWAP3 POP JUMPDEST DUP1 PUSH2 0x8B9 DUP2 PUSH2 0x2F42 JUMP JUMPDEST SWAP2 POP POP PUSH2 0x73B JUMP JUMPDEST POP PUSH3 0x10000 DUP3 GT ISZERO PUSH2 0x90A JUMPI PUSH2 0x8DA PUSH3 0x10000 DUP4 PUSH2 0x2F0E JUMP JUMPDEST PUSH1 0x2 PUSH1 0x0 DUP3 DUP3 SLOAD PUSH2 0x8EB SWAP2 SWAP1 PUSH2 0x2F74 JUMP JUMPDEST SWAP1 SWAP2 SSTORE POP POP PUSH1 0x2 SLOAD PUSH3 0x10000 LT ISZERO PUSH2 0x905 JUMPI PUSH3 0x10000 PUSH1 0x2 SSTORE JUMPDEST PUSH2 0x95A JUMP JUMPDEST PUSH3 0x10000 DUP3 LT ISZERO PUSH2 0x95A JUMPI PUSH1 0x2 SLOAD PUSH2 0x925 DUP4 PUSH3 0x10000 PUSH2 0x2F0E JUMP JUMPDEST LT ISZERO PUSH2 0x954 JUMPI PUSH2 0x938 DUP3 PUSH3 0x10000 PUSH2 0x2F0E JUMP JUMPDEST PUSH1 0x2 PUSH1 0x0 DUP3 DUP3 SLOAD PUSH2 0x949 SWAP2 SWAP1 PUSH2 0x2F0E JUMP JUMPDEST SWAP1 SWAP2 SSTORE POP PUSH2 0x95A SWAP1 POP JUMP JUMPDEST PUSH1 0x0 PUSH1 0x2 SSTORE JUMPDEST POP POP POP JUMPDEST PUSH1 0x1 DUP1 SLOAD PUSH2 0xFF00 NOT AND SWAP1 SSTORE PUSH1 0x5 SLOAD PUSH1 0x40 MLOAD PUSH4 0x611CEA65 PUSH1 0xE1 SHL DUP2 MSTORE PUSH1 0x1 PUSH1 0x1 PUSH1 0xA0 SHL SUB SWAP1 SWAP2 AND SWAP1 PUSH4 0xC239D4CA SWAP1 PUSH2 0x99D SWAP1 CALLER SWAP1 DUP8 SWAP1 DUP8 SWAP1 PUSH1 0x4 ADD PUSH2 0x2A79 JUMP JUMPDEST PUSH1 0x0 PUSH1 0x40 MLOAD DUP1 DUP4 SUB DUP2 PUSH1 0x0 DUP8 DUP1 EXTCODESIZE ISZERO DUP1 ISZERO PUSH2 0x9B7 JUMPI PUSH1 0x0 DUP1 REVERT JUMPDEST POP GAS CALL ISZERO DUP1 ISZERO PUSH2 0x9CB JUMPI RETURNDATASIZE PUSH1 0x0 DUP1 RETURNDATACOPY RETURNDATASIZE PUSH1 0x0 REVERT JUMPDEST POP POP POP POP POP POP POP JUMP JUMPDEST PUSH1 0x1 SLOAD PUSH1 0xFF AND ISZERO DUP1 ISZERO PUSH2 0x9F1 JUMPI POP PUSH1 0x4 SLOAD PUSH1 0x1 PUSH1 0x1 PUSH1 0xA0 SHL SUB AND CALLER EQ JUMPDEST DUP1 PUSH2 0xA06 JUMPI POP PUSH1 0x5 SLOAD PUSH1 0x1 PUSH1 0x1 PUSH1 0xA0 SHL SUB AND CALLER EQ JUMPDEST DUP1 PUSH2 0xA1B JUMPI POP PUSH1 0x3 SLOAD PUSH1 0x1 PUSH1 0x1 PUSH1 0xA0 SHL SUB AND CALLER EQ JUMPDEST PUSH2 0xA24 JUMPI PUSH1 0x0 DUP1 REVERT JUMPDEST PUSH1 0x1 PUSH1 0x0 JUMPDEST PUSH2 0xA31 PUSH2 0xDD9 JUMP JUMPDEST DUP2 LT ISZERO PUSH2 0xA68 JUMPI PUSH2 0xA48 PUSH1 0xA PUSH1 0x0 PUSH2 0x666 DUP5 PUSH2 0x1341 JUMP JUMPDEST ISZERO PUSH2 0xA56 JUMPI PUSH1 0x0 SWAP2 POP PUSH2 0xA68 JUMP JUMPDEST DUP1 PUSH2 0xA60 DUP2 PUSH2 0x2F42 JUMP JUMPDEST SWAP2 POP POP PUSH2 0xA29 JUMP JUMPDEST POP DUP1 DUP1 ISZERO PUSH2 0xA7D JUMPI POP PUSH1 0x1 SLOAD PUSH2 0x100 SWAP1 DIV PUSH1 0xFF AND JUMPDEST ISZERO PUSH2 0xD16 JUMPI PUSH1 0x5 SLOAD PUSH1 0x40 DUP1 MLOAD PUSH4 0x2B5B729 PUSH1 0xE4 SHL DUP2 MSTORE SWAP1 MLOAD PUSH1 0x0 SWAP3 PUSH1 0x1 PUSH1 0x1 PUSH1 0xA0 SHL SUB AND SWAP2 PUSH4 0x2B5B7290 SWAP2 PUSH1 0x4 DUP1 DUP4 ADD SWAP3 PUSH1 0x20 SWAP3 SWAP2 SWAP1 DUP3 SWAP1 SUB ADD DUP2 DUP7 GAS STATICCALL ISZERO DUP1 ISZERO PUSH2 0xACC JUMPI RETURNDATASIZE PUSH1 0x0 DUP1 RETURNDATACOPY RETURNDATASIZE PUSH1 0x0 REVERT JUMPDEST POP POP POP POP PUSH1 0x40 MLOAD RETURNDATASIZE PUSH1 0x1F NOT PUSH1 0x1F DUP3 ADD AND DUP3 ADD DUP1 PUSH1 0x40 MSTORE POP DUP2 ADD SWAP1 PUSH2 0xAF0 SWAP2 SWAP1 PUSH2 0x2F5B JUMP JUMPDEST SWAP1 POP PUSH1 0x0 DUP1 PUSH1 0x0 JUMPDEST DUP4 DUP2 LT ISZERO PUSH2 0xC79 JUMPI PUSH1 0x5 SLOAD PUSH1 0x40 MLOAD PUSH4 0x256F2FDD PUSH1 0xE1 SHL DUP2 MSTORE PUSH1 0x4 DUP2 ADD DUP4 SWAP1 MSTORE PUSH1 0x1 PUSH1 0x1 PUSH1 0xA0 SHL SUB SWAP1 SWAP2 AND SWAP1 PUSH4 0x4ADE5FBA SWAP1 PUSH1 0x24 ADD PUSH1 0x20 PUSH1 0x40 MLOAD DUP1 DUP4 SUB DUP2 DUP7 GAS STATICCALL ISZERO DUP1 ISZERO PUSH2 0xB49 JUMPI RETURNDATASIZE PUSH1 0x0 DUP1 RETURNDATACOPY RETURNDATASIZE PUSH1 0x0 REVERT JUMPDEST POP POP POP POP PUSH1 0x40 MLOAD RETURNDATASIZE PUSH1 0x1F NOT PUSH1 0x1F DUP3 ADD AND DUP3 ADD DUP1 PUSH1 0x40 MSTORE POP DUP2 ADD SWAP1 PUSH2 0xB6D SWAP2 SWAP1 PUSH2 0x2EDB JUMP JUMPDEST PUSH1 0x1 PUSH1 0x1 PUSH1 0xA0 SHL SUB AND PUSH4 0x8B0441E2 PUSH1 0x40 MLOAD DUP2 PUSH4 0xFFFFFFFF AND PUSH1 0xE0 SHL DUP2 MSTORE PUSH1 0x4 ADD PUSH1 0x20 PUSH1 0x40 MLOAD DUP1 DUP4 SUB DUP2 DUP7 GAS STATICCALL ISZERO DUP1 ISZERO PUSH2 0xBAA JUMPI RETURNDATASIZE PUSH1 0x0 DUP1 RETURNDATACOPY RETURNDATASIZE PUSH1 0x0 REVERT JUMPDEST POP POP POP POP PUSH1 0x40 MLOAD RETURNDATASIZE PUSH1 0x1F NOT PUSH1 0x1F DUP3 ADD AND DUP3 ADD DUP1 PUSH1 0x40 MSTORE POP DUP2 ADD SWAP1 PUSH2 0xBCE SWAP2 SWAP1 PUSH2 0x2EDB JUMP JUMPDEST PUSH1 0x1 PUSH1 0x1 PUSH1 0xA0 SHL SUB DUP2 AND PUSH1 0x0 SWAP1 DUP2 MSTORE PUSH1 0x8 PUSH1 0x20 MSTORE PUSH1 0x40 SWAP1 KECCAK256 SLOAD SWAP1 SWAP3 POP ISZERO PUSH2 0xC67 JUMPI DUP3 ISZERO PUSH2 0xC33 JUMPI PUSH1 0x1 PUSH1 0x1 PUSH1 0xA0 SHL SUB DUP3 AND PUSH1 0x0 SWAP1 DUP2 MSTORE PUSH1 0x8 PUSH1 0x20 SWAP1 DUP2 MSTORE PUSH1 0x40 DUP1 DUP4 KECCAK256 SLOAD PUSH1 0x9 SWAP1 SWAP3 MSTORE SWAP1 SWAP2 KECCAK256 SLOAD PUSH2 0xC2C SWAP2 DUP6 SWAP2 PUSH2 0x86F SWAP2 PUSH1 0x10 SWAP1 PUSH2 0x2144 JUMP JUMPDEST SWAP3 POP PUSH2 0xC67 JUMP JUMPDEST PUSH1 0x1 PUSH1 0x1 PUSH1 0xA0 SHL SUB DUP3 AND PUSH1 0x0 SWAP1 DUP2 MSTORE PUSH1 0x8 PUSH1 0x20 SWAP1 DUP2 MSTORE PUSH1 0x40 DUP1 DUP4 KECCAK256 SLOAD PUSH1 0x9 SWAP1 SWAP3 MSTORE SWAP1 SWAP2 KECCAK256 SLOAD PUSH2 0xC64 SWAP2 PUSH1 0x10 SWAP1 PUSH2 0x2144 JUMP JUMPDEST SWAP3 POP JUMPDEST DUP1 PUSH2 0xC71 DUP2 PUSH2 0x2F42 JUMP JUMPDEST SWAP2 POP POP PUSH2 0xAF8 JUMP JUMPDEST POP PUSH3 0x10000 DUP3 GT ISZERO PUSH2 0xCC2 JUMPI PUSH2 0xC92 PUSH3 0x10000 DUP4 PUSH2 0x2F0E JUMP JUMPDEST PUSH1 0x2 PUSH1 0x0 DUP3 DUP3 SLOAD PUSH2 0xCA3 SWAP2 SWAP1 PUSH2 0x2F74 JUMP JUMPDEST SWAP1 SWAP2 SSTORE POP POP PUSH1 0x2 SLOAD PUSH3 0x10000 LT ISZERO PUSH2 0xCBD JUMPI PUSH3 0x10000 PUSH1 0x2 SSTORE JUMPDEST PUSH2 0xD12 JUMP JUMPDEST PUSH3 0x10000 DUP3 LT ISZERO PUSH2 0xD12 JUMPI PUSH1 0x2 SLOAD PUSH2 0xCDD DUP4 PUSH3 0x10000 PUSH2 0x2F0E JUMP JUMPDEST LT ISZERO PUSH2 0xD0C JUMPI PUSH2 0xCF0 DUP3 PUSH3 0x10000 PUSH2 0x2F0E JUMP JUMPDEST PUSH1 0x2 PUSH1 0x0 DUP3 DUP3 SLOAD PUSH2 0xD01 SWAP2 SWAP1 PUSH2 0x2F0E JUMP JUMPDEST SWAP1 SWAP2 SSTORE POP PUSH2 0xD12 SWAP1 POP JUMP JUMPDEST PUSH1 0x0 PUSH1 0x2 SSTORE JUMPDEST POP POP POP JUMPDEST PUSH1 0x1 DUP1 SLOAD PUSH2 0xFF00 NOT AND SWAP1 SSTORE PUSH1 0x5 SLOAD PUSH1 0x40 MLOAD PUSH4 0x7BC1953 PUSH1 0xE3 SHL DUP2 MSTORE PUSH1 0x1 PUSH1 0x1 PUSH1 0xA0 SHL SUB DUP6 DUP2 AND PUSH1 0x4 DUP4 ADD MSTORE PUSH1 0x24 DUP3 ADD DUP6 SWAP1 MSTORE SWAP1 SWAP2 AND SWAP1 PUSH4 0x3DE0CA98 SWAP1 PUSH1 0x44 ADD PUSH2 0x99D JUMP JUMPDEST PUSH1 0x5 SLOAD PUSH1 0x1 PUSH1 0x1 PUSH1 0xA0 SHL SUB AND CALLER EQ PUSH2 0xD71 JUMPI PUSH1 0x0 DUP1 REVERT JUMPDEST PUSH1 0x3 DUP1 SLOAD PUSH1 0x1 PUSH1 0x1 PUSH1 0xA0 SHL SUB SWAP5 DUP6 AND PUSH1 0x1 PUSH1 0x1 PUSH1 0xA0 SHL SUB NOT SWAP2 DUP3 AND OR SWAP1 SWAP2 SSTORE PUSH1 0x4 DUP1 SLOAD SWAP4 DUP6 AND SWAP4 DUP3 AND SWAP4 SWAP1 SWAP4 OR SWAP1 SWAP3 SSTORE PUSH1 0x6 DUP1 SLOAD SWAP2 SWAP1 SWAP4 AND SWAP2 AND OR SWAP1 SSTORE JUMP JUMPDEST PUSH1 0x1 PUSH1 0x1 PUSH1 0xA0 SHL SUB DUP3 AND PUSH1 0x0 SWAP1 DUP2 MSTORE PUSH1 0xA PUSH1 0x20 MSTORE PUSH1 0x40 DUP2 KECCAK256 PUSH2 0xDD2 SWAP1 DUP4 PUSH2 0x21AE JUMP JUMPDEST SWAP4 SWAP3 POP POP POP JUMP JUMPDEST PUSH1 0x5 SLOAD PUSH1 0x40 DUP1 MLOAD PUSH4 0x1BBA9A3D PUSH1 0xE2 SHL DUP2 MSTORE SWAP1 MLOAD PUSH1 0x0 SWAP3 PUSH1 0x1 PUSH1 0x1 PUSH1 0xA0 SHL SUB AND SWAP2 PUSH4 0x6EEA68F4 SWAP2 PUSH1 0x4 DUP1 DUP4 ADD SWAP3 PUSH1 0x20 SWAP3 SWAP2 SWAP1 DUP3 SWAP1 SUB ADD DUP2 DUP7 GAS STATICCALL ISZERO DUP1 ISZERO PUSH2 0xE23 JUMPI RETURNDATASIZE PUSH1 0x0 DUP1 RETURNDATACOPY RETURNDATASIZE PUSH1 0x0 REVERT JUMPDEST POP POP POP POP PUSH1 0x40 MLOAD RETURNDATASIZE PUSH1 0x1F NOT PUSH1 0x1F DUP3 ADD AND DUP3 ADD DUP1 PUSH1 0x40 MSTORE POP DUP2 ADD SWAP1 PUSH2 0xE47 SWAP2 SWAP1 PUSH2 0x2F5B JUMP JUMPDEST SWAP1 POP SWAP1 JUMP JUMPDEST PUSH1 0x5 SLOAD PUSH1 0x40 MLOAD PUSH4 0x1D1EE023 PUSH1 0xE2 SHL DUP2 MSTORE PUSH1 0x1 PUSH1 0x1 PUSH1 0xA0 SHL SUB DUP4 DUP2 AND PUSH1 0x4 DUP4 ADD MSTORE PUSH1 0x0 SWAP3 AND SWAP1 PUSH4 0x747B808C SWAP1 PUSH1 0x24 ADD PUSH1 0x20 PUSH1 0x40 MLOAD DUP1 DUP4 SUB DUP2 DUP7 GAS STATICCALL ISZERO DUP1 ISZERO PUSH2 0xE97 JUMPI RETURNDATASIZE PUSH1 0x0 DUP1 RETURNDATACOPY RETURNDATASIZE PUSH1 0x0 REVERT JUMPDEST POP POP POP POP PUSH1 0x40 MLOAD RETURNDATASIZE PUSH1 0x1F NOT PUSH1 0x1F DUP3 ADD AND DUP3 ADD DUP1 PUSH1 0x40 MSTORE POP DUP2 ADD SWAP1 PUSH2 0x4F1 SWAP2 SWAP1 PUSH2 0x2F5B JUMP JUMPDEST PUSH1 0x1 PUSH1 0x1 PUSH1 0xA0 SHL SUB DUP2 AND PUSH1 0x0 SWAP1 DUP2 MSTORE PUSH1 0xA PUSH1 0x20 MSTORE PUSH1 0x40 DUP2 KECCAK256 PUSH2 0x4F1 SWAP1 PUSH2 0x213A JUMP JUMPDEST PUSH1 0x5 SLOAD PUSH1 0x40 MLOAD PUSH4 0x7D2A16E9 PUSH1 0xE0 SHL DUP2 MSTORE PUSH1 0x1 PUSH1 0x1 PUSH1 0xA0 SHL SUB DUP4 DUP2 AND PUSH1 0x4 DUP4 ADD MSTORE PUSH1 0x0 SWAP3 AND SWAP1 PUSH4 0x7D2A16E9 SWAP1 PUSH1 0x24 ADD PUSH2 0x4B0 JUMP JUMPDEST PUSH1 0x1 SLOAD PUSH1 0xFF AND ISZERO DUP1 ISZERO PUSH2 0xF2C JUMPI POP PUSH1 0x4 SLOAD PUSH1 0x1 PUSH1 0x1 PUSH1 0xA0 SHL SUB AND CALLER EQ JUMPDEST DUP1 PUSH2 0xF41 JUMPI POP PUSH1 0x5 SLOAD PUSH1 0x1 PUSH1 0x1 PUSH1 0xA0 SHL SUB AND CALLER EQ JUMPDEST DUP1 PUSH2 0xF56 JUMPI POP PUSH1 0x3 SLOAD PUSH1 0x1 PUSH1 0x1 PUSH1 0xA0 SHL SUB AND CALLER EQ JUMPDEST PUSH2 0xF5F JUMPI PUSH1 0x0 DUP1 REVERT JUMPDEST PUSH1 0x1 PUSH1 0x0 JUMPDEST PUSH2 0xF6C PUSH2 0xDD9 JUMP JUMPDEST DUP2 LT ISZERO PUSH2 0xFA3 JUMPI PUSH2 0xF83 PUSH1 0xA PUSH1 0x0 PUSH2 0x666 DUP5 PUSH2 0x1341 JUMP JUMPDEST ISZERO PUSH2 0xF91 JUMPI PUSH1 0x0 SWAP2 POP PUSH2 0xFA3 JUMP JUMPDEST DUP1 PUSH2 0xF9B DUP2 PUSH2 0x2F42 JUMP JUMPDEST SWAP2 POP POP PUSH2 0xF64 JUMP JUMPDEST POP DUP1 DUP1 ISZERO PUSH2 0xFB8 JUMPI POP PUSH1 0x1 SLOAD PUSH2 0x100 SWAP1 DIV PUSH1 0xFF AND JUMPDEST ISZERO PUSH2 0x1251 JUMPI PUSH1 0x5 SLOAD PUSH1 0x40 DUP1 MLOAD PUSH4 0x2B5B729 PUSH1 0xE4 SHL DUP2 MSTORE SWAP1 MLOAD PUSH1 0x0 SWAP3 PUSH1 0x1 PUSH1 0x1 PUSH1 0xA0 SHL SUB AND SWAP2 PUSH4 0x2B5B7290 SWAP2 PUSH1 0x4 DUP1 DUP4 ADD SWAP3 PUSH1 0x20 SWAP3 SWAP2 SWAP1 DUP3 SWAP1 SUB ADD DUP2 DUP7 GAS STATICCALL ISZERO DUP1 ISZERO PUSH2 0x1007 JUMPI RETURNDATASIZE PUSH1 0x0 DUP1 RETURNDATACOPY RETURNDATASIZE PUSH1 0x0 REVERT JUMPDEST POP POP POP POP PUSH1 0x40 MLOAD RETURNDATASIZE PUSH1 0x1F NOT PUSH1 0x1F DUP3 ADD AND DUP3 ADD DUP1 PUSH1 0x40 MSTORE POP DUP2 ADD SWAP1 PUSH2 0x102B SWAP2 SWAP1 PUSH2 0x2F5B JUMP JUMPDEST SWAP1 POP PUSH1 0x0 DUP1 PUSH1 0x0 JUMPDEST DUP4 DUP2 LT ISZERO PUSH2 0x11B4 JUMPI PUSH1 0x5 SLOAD PUSH1 0x40 MLOAD PUSH4 0x256F2FDD PUSH1 0xE1 SHL DUP2 MSTORE PUSH1 0x4 DUP2 ADD DUP4 SWAP1 MSTORE PUSH1 0x1 PUSH1 0x1 PUSH1 0xA0 SHL SUB SWAP1 SWAP2 AND SWAP1 PUSH4 0x4ADE5FBA SWAP1 PUSH1 0x24 ADD PUSH1 0x20 PUSH1 0x40 MLOAD DUP1 DUP4 SUB DUP2 DUP7 GAS STATICCALL ISZERO DUP1 ISZERO PUSH2 0x1084 JUMPI RETURNDATASIZE PUSH1 0x0 DUP1 RETURNDATACOPY RETURNDATASIZE PUSH1 0x0 REVERT JUMPDEST POP POP POP POP PUSH1 0x40 MLOAD RETURNDATASIZE PUSH1 0x1F NOT PUSH1 0x1F DUP3 ADD AND DUP3 ADD DUP1 PUSH1 0x40 MSTORE POP DUP2 ADD SWAP1 PUSH2 0x10A8 SWAP2 SWAP1 PUSH2 0x2EDB JUMP JUMPDEST PUSH1 0x1 PUSH1 0x1 PUSH1 0xA0 SHL SUB AND PUSH4 0x8B0441E2 PUSH1 0x40 MLOAD DUP2 PUSH4 0xFFFFFFFF AND PUSH1 0xE0 SHL DUP2 MSTORE PUSH1 0x4 ADD PUSH1 0x20 PUSH1 0x40 MLOAD DUP1 DUP4 SUB DUP2 DUP7 GAS STATICCALL ISZERO DUP1 ISZERO PUSH2 0x10E5 JUMPI RETURNDATASIZE PUSH1 0x0 DUP1 RETURNDATACOPY RETURNDATASIZE PUSH1 0x0 REVERT JUMPDEST POP POP POP POP PUSH1 0x40 MLOAD RETURNDATASIZE PUSH1 0x1F NOT PUSH1 0x1F DUP3 ADD AND DUP3 ADD DUP1 PUSH1 0x40 MSTORE POP DUP2 ADD SWAP1 PUSH2 0x1109 SWAP2 SWAP1 PUSH2 0x2EDB JUMP JUMPDEST PUSH1 0x1 PUSH1 0x1 PUSH1 0xA0 SHL SUB DUP2 AND PUSH1 0x0 SWAP1 DUP2 MSTORE PUSH1 0x8 PUSH1 0x20 MSTORE PUSH1 0x40 SWAP1 KECCAK256 SLOAD SWAP1 SWAP3 POP ISZERO PUSH2 0x11A2 JUMPI DUP3 ISZERO PUSH2 0x116E JUMPI PUSH1 0x1 PUSH1 0x1 PUSH1 0xA0 SHL SUB DUP3 AND PUSH1 0x0 SWAP1 DUP2 MSTORE PUSH1 0x8 PUSH1 0x20 SWAP1 DUP2 MSTORE PUSH1 0x40 DUP1 DUP4 KECCAK256 SLOAD PUSH1 0x9 SWAP1 SWAP3 MSTORE SWAP1 SWAP2 KECCAK256 SLOAD PUSH2 0x1167 SWAP2 DUP6 SWAP2 PUSH2 0x86F SWAP2 PUSH1 0x10 SWAP1 PUSH2 0x2144 JUMP JUMPDEST SWAP3 POP PUSH2 0x11A2 JUMP JUMPDEST PUSH1 0x1 PUSH1 0x1 PUSH1 0xA0 SHL SUB DUP3 AND PUSH1 0x0 SWAP1 DUP2 MSTORE PUSH1 0x8 PUSH1 0x20 SWAP1 DUP2 MSTORE PUSH1 0x40 DUP1 DUP4 KECCAK256 SLOAD PUSH1 0x9 SWAP1 SWAP3 MSTORE SWAP1 SWAP2 KECCAK256 SLOAD PUSH2 0x119F SWAP2 PUSH1 0x10 SWAP1 PUSH2 0x2144 JUMP JUMPDEST SWAP3 POP JUMPDEST DUP1 PUSH2 0x11AC DUP2 PUSH2 0x2F42 JUMP JUMPDEST SWAP2 POP POP PUSH2 0x1033 JUMP JUMPDEST POP PUSH3 0x10000 DUP3 GT ISZERO PUSH2 0x11FD JUMPI PUSH2 0x11CD PUSH3 0x10000 DUP4 PUSH2 0x2F0E JUMP JUMPDEST PUSH1 0x2 PUSH1 0x0 DUP3 DUP3 SLOAD PUSH2 0x11DE SWAP2 SWAP1 PUSH2 0x2F74 JUMP JUMPDEST SWAP1 SWAP2 SSTORE POP POP PUSH1 0x2 SLOAD PUSH3 0x10000 LT ISZERO PUSH2 0x11F8 JUMPI PUSH3 0x10000 PUSH1 0x2 SSTORE JUMPDEST PUSH2 0x124D JUMP JUMPDEST PUSH3 0x10000 DUP3 LT ISZERO PUSH2 0x124D JUMPI PUSH1 0x2 SLOAD PUSH2 0x1218 DUP4 PUSH3 0x10000 PUSH2 0x2F0E JUMP JUMPDEST LT ISZERO PUSH2 0x1247 JUMPI PUSH2 0x122B DUP3 PUSH3 0x10000 PUSH2 0x2F0E JUMP JUMPDEST PUSH1 0x2 PUSH1 0x0 DUP3 DUP3 SLOAD PUSH2 0x123C SWAP2 SWAP1 PUSH2 0x2F0E JUMP JUMPDEST SWAP1 SWAP2 SSTORE POP PUSH2 0x124D SWAP1 POP JUMP JUMPDEST PUSH1 0x0 PUSH1 0x2 SSTORE JUMPDEST POP POP POP JUMPDEST PUSH1 0x1 DUP1 SLOAD PUSH2 0xFF00 NOT AND SWAP1 SSTORE PUSH1 0x5 SLOAD PUSH1 0x40 MLOAD PUSH4 0x5D1F70DB PUSH1 0xE1 SHL DUP2 MSTORE PUSH1 0x1 PUSH1 0x1 PUSH1 0xA0 SHL SUB DUP5 DUP2 AND PUSH1 0x4 DUP4 ADD MSTORE SWAP1 SWAP2 AND SWAP1 PUSH4 0xBA3EE1B6 SWAP1 PUSH1 0x24 ADD PUSH1 0x0 PUSH1 0x40 MLOAD DUP1 DUP4 SUB DUP2 PUSH1 0x0 DUP8 DUP1 EXTCODESIZE ISZERO DUP1 ISZERO PUSH2 0x12A3 JUMPI PUSH1 0x0 DUP1 REVERT JUMPDEST POP GAS CALL ISZERO DUP1 ISZERO PUSH2 0x12B7 JUMPI RETURNDATASIZE PUSH1 0x0 DUP1 RETURNDATACOPY RETURNDATASIZE PUSH1 0x0 REVERT JUMPDEST POP POP POP POP POP POP JUMP JUMPDEST PUSH1 0x5 SLOAD PUSH1 0x40 MLOAD PUSH4 0xAC6427C1 PUSH1 0xE0 SHL DUP2 MSTORE PUSH1 0x1 PUSH1 0x1 PUSH1 0xA0 SHL SUB DUP4 DUP2 AND PUSH1 0x4 DUP4 ADD MSTORE PUSH1 0x0 SWAP3 DUP4 SWAP3 DUP4 SWAP3 SWAP1 SWAP2 AND SWAP1 PUSH4 0xAC6427C1 SWAP1 PUSH1 0x24 ADD PUSH1 0x60 PUSH1 0x40 MLOAD DUP1 DUP4 SUB DUP2 DUP7 GAS STATICCALL ISZERO DUP1 ISZERO PUSH2 0x1310 JUMPI RETURNDATASIZE PUSH1 0x0 DUP1 RETURNDATACOPY RETURNDATASIZE PUSH1 0x0 REVERT JUMPDEST POP POP POP POP PUSH1 0x40 MLOAD RETURNDATASIZE PUSH1 0x1F NOT PUSH1 0x1F DUP3 ADD AND DUP3 ADD DUP1 PUSH1 0x40 MSTORE POP DUP2 ADD SWAP1 PUSH2 0x1334 SWAP2 SWAP1 PUSH2 0x2F8C JUMP JUMPDEST SWAP3 POP SWAP3 POP SWAP3 POP SWAP2 SWAP4 SWAP1 SWAP3 POP JUMP JUMPDEST PUSH1 0x5 SLOAD PUSH1 0x40 MLOAD PUSH4 0x4BD3783F PUSH1 0xE1 SHL DUP2 MSTORE PUSH1 0x4 DUP2 ADD DUP4 SWAP1 MSTORE PUSH1 0x0 SWAP2 PUSH1 0x1 PUSH1 0x1 PUSH1 0xA0 SHL SUB AND SWAP1 PUSH4 0x97A6F07E SWAP1 PUSH1 0x24 ADD PUSH2 0x4B0 JUMP JUMPDEST PUSH1 0x5 SLOAD PUSH1 0x40 MLOAD PUSH4 0x5BFA181 PUSH1 0xE5 SHL DUP2 MSTORE PUSH1 0x1 PUSH1 0x1 PUSH1 0xA0 SHL SUB DUP4 DUP2 AND PUSH1 0x4 DUP4 ADD MSTORE PUSH1 0x0 SWAP3 AND SWAP1 PUSH4 0xB7F43020 SWAP1 PUSH1 0x24 ADD PUSH1 0x20 PUSH1 0x40 MLOAD DUP1 DUP4 SUB DUP2 DUP7 GAS STATICCALL ISZERO DUP1 ISZERO PUSH2 0x13BE JUMPI RETURNDATASIZE PUSH1 0x0 DUP1 RETURNDATACOPY RETURNDATASIZE PUSH1 0x0 REVERT JUMPDEST POP POP POP POP PUSH1 0x40 MLOAD RETURNDATASIZE PUSH1 0x1F NOT PUSH1 0x1F DUP3 ADD AND DUP3 ADD DUP1 PUSH1 0x40 MSTORE POP DUP2 ADD SWAP1 PUSH2 0x4F1 SWAP2 SWAP1 PUSH2 0x2F25 JUMP JUMPDEST PUSH1 0x1 SLOAD PUSH1 0xFF AND ISZERO DUP1 ISZERO PUSH2 0x13FF JUMPI POP PUSH1 0x4 SLOAD PUSH1 0x1 PUSH1 0x1 PUSH1 0xA0 SHL SUB AND CALLER EQ JUMPDEST DUP1 PUSH2 0x1414 JUMPI POP PUSH1 0x5 SLOAD PUSH1 0x1 PUSH1 0x1 PUSH1 0xA0 SHL SUB AND CALLER EQ JUMPDEST DUP1 PUSH2 0x1429 JUMPI POP PUSH1 0x3 SLOAD PUSH1 0x1 PUSH1 0x1 PUSH1 0xA0 SHL SUB AND CALLER EQ JUMPDEST PUSH2 0x1432 JUMPI PUSH1 0x0 DUP1 REVERT JUMPDEST PUSH2 0x143A PUSH2 0x21BA JUMP JUMPDEST PUSH2 0x14AA DUP7 DUP7 DUP7 DUP1 DUP1 PUSH1 0x20 MUL PUSH1 0x20 ADD PUSH1 0x40 MLOAD SWAP1 DUP2 ADD PUSH1 0x40 MSTORE DUP1 SWAP4 SWAP3 SWAP2 SWAP1 DUP2 DUP2 MSTORE PUSH1 0x20 ADD DUP4 DUP4 PUSH1 0x20 MUL DUP1 DUP3 DUP5 CALLDATACOPY PUSH1 0x0 SWAP3 ADD SWAP2 SWAP1 SWAP2 MSTORE POP POP PUSH1 0x40 DUP1 MLOAD PUSH1 0x20 DUP1 DUP11 MUL DUP3 DUP2 ADD DUP3 ADD SWAP1 SWAP4 MSTORE DUP10 DUP3 MSTORE SWAP1 SWAP4 POP DUP10 SWAP3 POP DUP9 SWAP2 DUP3 SWAP2 DUP6 ADD SWAP1 DUP5 SWAP1 DUP1 DUP3 DUP5 CALLDATACOPY PUSH1 0x0 SWAP3 ADD SWAP2 SWAP1 SWAP2 MSTORE POP DUP8 SWAP3 POP PUSH2 0x2213 SWAP2 POP POP JUMP JUMPDEST PUSH2 0x12B7 PUSH1 0x1 PUSH1 0x0 SSTORE JUMP JUMPDEST PUSH1 0x1 SLOAD PUSH1 0xFF AND ISZERO DUP1 ISZERO PUSH2 0x14D1 JUMPI POP PUSH1 0x4 SLOAD PUSH1 0x1 PUSH1 0x1 PUSH1 0xA0 SHL SUB AND CALLER EQ JUMPDEST DUP1 PUSH2 0x14E6 JUMPI POP PUSH1 0x5 SLOAD PUSH1 0x1 PUSH1 0x1 PUSH1 0xA0 SHL SUB AND CALLER EQ JUMPDEST DUP1 PUSH2 0x14FB JUMPI POP PUSH1 0x3 SLOAD PUSH1 0x1 PUSH1 0x1 PUSH1 0xA0 SHL SUB AND CALLER EQ JUMPDEST PUSH2 0x1504 JUMPI PUSH1 0x0 DUP1 REVERT JUMPDEST PUSH1 0x6 SLOAD PUSH1 0x1 PUSH1 0x1 PUSH1 0xA0 SHL SUB AND PUSH2 0x152D JUMPI PUSH1 0x40 MLOAD PUSH4 0xE3B3E1D PUSH1 0xE1 SHL DUP2 MSTORE PUSH1 0x4 ADD PUSH1 0x40 MLOAD DUP1 SWAP2 SUB SWAP1 REVERT JUMPDEST PUSH1 0x1 PUSH1 0x1 PUSH1 0xA0 SHL SUB DUP2 DUP2 AND PUSH1 0x0 DUP2 DUP2 MSTORE PUSH1 0x7 PUSH1 0x20 MSTORE PUSH1 0x40 SWAP1 DUP2 SWAP1 KECCAK256 DUP1 SLOAD PUSH1 0xFF NOT AND PUSH1 0x1 OR SWAP1 SSTORE PUSH1 0x6 SLOAD SWAP1 MLOAD PUSH4 0x95EA7B3 PUSH1 0xE0 SHL DUP2 MSTORE SWAP3 AND PUSH1 0x4 DUP4 ADD MSTORE PUSH1 0x0 NOT PUSH1 0x24 DUP4 ADD MSTORE SWAP1 PUSH4 0x95EA7B3 SWAP1 PUSH1 0x44 ADD PUSH1 0x20 PUSH1 0x40 MLOAD DUP1 DUP4 SUB DUP2 PUSH1 0x0 DUP8 GAS CALL ISZERO DUP1 ISZERO PUSH2 0x159A JUMPI RETURNDATASIZE PUSH1 0x0 DUP1 RETURNDATACOPY RETURNDATASIZE PUSH1 0x0 REVERT JUMPDEST POP POP POP POP PUSH1 0x40 MLOAD RETURNDATASIZE PUSH1 0x1F NOT PUSH1 0x1F DUP3 ADD AND DUP3 ADD DUP1 PUSH1 0x40 MSTORE POP DUP2 ADD SWAP1 PUSH2 0x15BE SWAP2 SWAP1 PUSH2 0x2F25 JUMP JUMPDEST POP PUSH1 0x5 SLOAD PUSH1 0x40 MLOAD PUSH4 0x429015BB PUSH1 0xE0 SHL DUP2 MSTORE PUSH1 0x1 PUSH1 0x1 PUSH1 0xA0 SHL SUB DUP4 DUP2 AND PUSH1 0x4 DUP4 ADD MSTORE SWAP1 SWAP2 AND SWAP1 PUSH4 0x429015BB SWAP1 PUSH1 0x24 ADD PUSH1 0x0 PUSH1 0x40 MLOAD DUP1 DUP4 SUB DUP2 PUSH1 0x0 DUP8 DUP1 EXTCODESIZE ISZERO DUP1 ISZERO PUSH2 0x1606 JUMPI PUSH1 0x0 DUP1 REVERT JUMPDEST POP GAS CALL ISZERO DUP1 ISZERO PUSH2 0x161A JUMPI RETURNDATASIZE PUSH1 0x0 DUP1 RETURNDATACOPY RETURNDATASIZE PUSH1 0x0 REVERT JUMPDEST POP POP POP POP POP JUMP JUMPDEST PUSH1 0x5 SLOAD PUSH1 0x1 PUSH1 0x1 PUSH1 0xA0 SHL SUB AND CALLER EQ PUSH2 0x1638 JUMPI PUSH1 0x0 DUP1 REVERT JUMPDEST PUSH1 0x1 PUSH1 0x1 PUSH1 0xA0 SHL SUB DUP3 AND PUSH1 0x0 SWAP1 DUP2 MSTORE PUSH1 0x9 PUSH1 0x20 MSTORE PUSH1 0x40 DUP2 KECCAK256 DUP1 SLOAD DUP4 SWAP3 SWAP1 PUSH2 0x1660 SWAP1 DUP5 SWAP1 PUSH2 0x2F74 JUMP JUMPDEST SWAP1 SWAP2 SSTORE POP POP PUSH1 0x40 MLOAD PUSH4 0x23B872DD PUSH1 0xE0 SHL DUP2 MSTORE PUSH1 0x1 PUSH1 0x1 PUSH1 0xA0 SHL SUB DUP4 AND SWAP1 PUSH4 0x23B872DD SWAP1 PUSH2 0x56C SWAP1 DUP7 SWAP1 ADDRESS SWAP1 DUP7 SWAP1 PUSH1 0x4 ADD PUSH2 0x2A79 JUMP JUMPDEST PUSH1 0x5 SLOAD PUSH1 0x0 SWAP1 DUP2 SWAP1 PUSH1 0x1 PUSH1 0x1 PUSH1 0xA0 SHL SUB AND CALLER EQ PUSH2 0x16B1 JUMPI PUSH1 0x0 DUP1 REVERT JUMPDEST PUSH1 0x0 ADDRESS DUP8 DUP8 PUSH1 0x40 MLOAD PUSH1 0x24 ADD PUSH2 0x16C8 SWAP4 SWAP3 SWAP2 SWAP1 PUSH2 0x2FCF JUMP JUMPDEST PUSH1 0x40 DUP1 MLOAD PUSH1 0x1F NOT DUP2 DUP5 SUB ADD DUP2 MSTORE SWAP2 SWAP1 MSTORE PUSH1 0x20 DUP2 ADD DUP1 MLOAD PUSH1 0x1 PUSH1 0x1 PUSH1 0xE0 SHL SUB AND PUSH4 0x225B20B9 PUSH1 0xE0 SHL OR SWAP1 MSTORE SWAP1 POP PUSH1 0x0 PUSH2 0x1709 PUSH1 0x1 PUSH1 0x1 PUSH1 0xA0 SHL SUB DUP11 AND DUP4 PUSH2 0x2640 JUMP JUMPDEST SWAP1 POP DUP1 DUP1 PUSH1 0x20 ADD SWAP1 MLOAD DUP2 ADD SWAP1 PUSH2 0x171F SWAP2 SWAP1 PUSH2 0x301C JUMP JUMPDEST PUSH1 0x1 PUSH1 0x1 PUSH1 0xA0 SHL SUB DUP9 AND PUSH1 0x0 SWAP1 DUP2 MSTORE PUSH1 0x9 PUSH1 0x20 MSTORE PUSH1 0x40 DUP2 KECCAK256 DUP1 SLOAD SWAP4 SWAP8 POP SWAP2 SWAP6 POP DUP7 SWAP3 PUSH2 0x174C SWAP1 DUP5 SWAP1 PUSH2 0x2F74 JUMP JUMPDEST SWAP1 SWAP2 SSTORE POP POP PUSH1 0x1 PUSH1 0x1 PUSH1 0xA0 SHL SUB DUP6 AND PUSH1 0x0 SWAP1 DUP2 MSTORE PUSH1 0x9 PUSH1 0x20 MSTORE PUSH1 0x40 DUP2 KECCAK256 DUP1 SLOAD DUP6 SWAP3 SWAP1 PUSH2 0x1779 SWAP1 DUP5 SWAP1 PUSH2 0x2F74 JUMP JUMPDEST SWAP3 POP POP DUP2 SWAP1 SSTORE POP POP POP SWAP6 POP SWAP6 SWAP4 POP POP POP POP JUMP JUMPDEST PUSH1 0x5 SLOAD PUSH1 0x40 MLOAD PUSH4 0x42C90263 PUSH1 0xE1 SHL DUP2 MSTORE PUSH1 0x1 PUSH1 0x1 PUSH1 0xA0 SHL SUB SWAP1 SWAP2 AND SWAP1 PUSH4 0x859204C6 SWAP1 PUSH2 0x17C2 SWAP1 DUP8 SWAP1 DUP8 SWAP1 DUP8 SWAP1 DUP8 SWAP1 PUSH1 0x4 ADD PUSH2 0x307B JUMP JUMPDEST PUSH1 0x0 PUSH1 0x40 MLOAD DUP1 DUP4 SUB DUP2 PUSH1 0x0 DUP8 DUP1 EXTCODESIZE ISZERO DUP1 ISZERO PUSH2 0x17DC JUMPI PUSH1 0x0 DUP1 REVERT JUMPDEST POP GAS CALL ISZERO DUP1 ISZERO PUSH2 0x17F0 JUMPI RETURNDATASIZE PUSH1 0x0 DUP1 RETURNDATACOPY RETURNDATASIZE PUSH1 0x0 REVERT JUMPDEST POP POP POP POP POP POP POP POP JUMP JUMPDEST PUSH1 0x1 SLOAD PUSH1 0xFF AND ISZERO DUP1 ISZERO PUSH2 0x1817 JUMPI POP PUSH1 0x4 SLOAD PUSH1 0x1 PUSH1 0x1 PUSH1 0xA0 SHL SUB AND CALLER EQ JUMPDEST DUP1 PUSH2 0x182C JUMPI POP PUSH1 0x5 SLOAD PUSH1 0x1 PUSH1 0x1 PUSH1 0xA0 SHL SUB AND CALLER EQ JUMPDEST DUP1 PUSH2 0x1841 JUMPI POP PUSH1 0x3 SLOAD PUSH1 0x1 PUSH1 0x1 PUSH1 0xA0 SHL SUB AND CALLER EQ JUMPDEST PUSH2 0x184A JUMPI PUSH1 0x0 DUP1 REVERT JUMPDEST PUSH1 0x1 PUSH1 0x0 JUMPDEST PUSH2 0x1857 PUSH2 0xDD9 JUMP JUMPDEST DUP2 LT ISZERO PUSH2 0x188E JUMPI PUSH2 0x186E PUSH1 0xA PUSH1 0x0 PUSH2 0x666 DUP5 PUSH2 0x1341 JUMP JUMPDEST ISZERO PUSH2 0x187C JUMPI PUSH1 0x0 SWAP2 POP PUSH2 0x188E JUMP JUMPDEST DUP1 PUSH2 0x1886 DUP2 PUSH2 0x2F42 JUMP JUMPDEST SWAP2 POP POP PUSH2 0x184F JUMP JUMPDEST POP DUP1 DUP1 ISZERO PUSH2 0x18A3 JUMPI POP PUSH1 0x1 SLOAD PUSH2 0x100 SWAP1 DIV PUSH1 0xFF AND JUMPDEST ISZERO PUSH2 0x1B3C JUMPI PUSH1 0x5 SLOAD PUSH1 0x40 DUP1 MLOAD PUSH4 0x2B5B729 PUSH1 0xE4 SHL DUP2 MSTORE SWAP1 MLOAD PUSH1 0x0 SWAP3 PUSH1 0x1 PUSH1 0x1 PUSH1 0xA0 SHL SUB AND SWAP2 PUSH4 0x2B5B7290 SWAP2 PUSH1 0x4 DUP1 DUP4 ADD SWAP3 PUSH1 0x20 SWAP3 SWAP2 SWAP1 DUP3 SWAP1 SUB ADD DUP2 DUP7 GAS STATICCALL ISZERO DUP1 ISZERO PUSH2 0x18F2 JUMPI RETURNDATASIZE PUSH1 0x0 DUP1 RETURNDATACOPY RETURNDATASIZE PUSH1 0x0 REVERT JUMPDEST POP POP POP POP PUSH1 0x40 MLOAD RETURNDATASIZE PUSH1 0x1F NOT PUSH1 0x1F DUP3 ADD AND DUP3 ADD DUP1 PUSH1 0x40 MSTORE POP DUP2 ADD SWAP1 PUSH2 0x1916 SWAP2 SWAP1 PUSH2 0x2F5B JUMP JUMPDEST SWAP1 POP PUSH1 0x0 DUP1 PUSH1 0x0 JUMPDEST DUP4 DUP2 LT ISZERO PUSH2 0x1A9F JUMPI PUSH1 0x5 SLOAD PUSH1 0x40 MLOAD PUSH4 0x256F2FDD PUSH1 0xE1 SHL DUP2 MSTORE PUSH1 0x4 DUP2 ADD DUP4 SWAP1 MSTORE PUSH1 0x1 PUSH1 0x1 PUSH1 0xA0 SHL SUB SWAP1 SWAP2 AND SWAP1 PUSH4 0x4ADE5FBA SWAP1 PUSH1 0x24 ADD PUSH1 0x20 PUSH1 0x40 MLOAD DUP1 DUP4 SUB DUP2 DUP7 GAS STATICCALL ISZERO DUP1 ISZERO PUSH2 0x196F JUMPI RETURNDATASIZE PUSH1 0x0 DUP1 RETURNDATACOPY RETURNDATASIZE PUSH1 0x0 REVERT JUMPDEST POP POP POP POP PUSH1 0x40 MLOAD RETURNDATASIZE PUSH1 0x1F NOT PUSH1 0x1F DUP3 ADD AND DUP3 ADD DUP1 PUSH1 0x40 MSTORE POP DUP2 ADD SWAP1 PUSH2 0x1993 SWAP2 SWAP1 PUSH2 0x2EDB JUMP JUMPDEST PUSH1 0x1 PUSH1 0x1 PUSH1 0xA0 SHL SUB AND PUSH4 0x8B0441E2 PUSH1 0x40 MLOAD DUP2 PUSH4 0xFFFFFFFF AND PUSH1 0xE0 SHL DUP2 MSTORE PUSH1 0x4 ADD PUSH1 0x20 PUSH1 0x40 MLOAD DUP1 DUP4 SUB DUP2 DUP7 GAS STATICCALL ISZERO DUP1 ISZERO PUSH2 0x19D0 JUMPI RETURNDATASIZE PUSH1 0x0 DUP1 RETURNDATACOPY RETURNDATASIZE PUSH1 0x0 REVERT JUMPDEST POP POP POP POP PUSH1 0x40 MLOAD RETURNDATASIZE PUSH1 0x1F NOT PUSH1 0x1F DUP3 ADD AND DUP3 ADD DUP1 PUSH1 0x40 MSTORE POP DUP2 ADD SWAP1 PUSH2 0x19F4 SWAP2 SWAP1 PUSH2 0x2EDB JUMP JUMPDEST PUSH1 0x1 PUSH1 0x1 PUSH1 0xA0 SHL SUB DUP2 AND PUSH1 0x0 SWAP1 DUP2 MSTORE PUSH1 0x8 PUSH1 0x20 MSTORE PUSH1 0x40 SWAP1 KECCAK256 SLOAD SWAP1 SWAP3 POP ISZERO PUSH2 0x1A8D JUMPI DUP3 ISZERO PUSH2 0x1A59 JUMPI PUSH1 0x1 PUSH1 0x1 PUSH1 0xA0 SHL SUB DUP3 AND PUSH1 0x0 SWAP1 DUP2 MSTORE PUSH1 0x8 PUSH1 0x20 SWAP1 DUP2 MSTORE PUSH1 0x40 DUP1 DUP4 KECCAK256 SLOAD PUSH1 0x9 SWAP1 SWAP3 MSTORE SWAP1 SWAP2 KECCAK256 SLOAD PUSH2 0x1A52 SWAP2 DUP6 SWAP2 PUSH2 0x86F SWAP2 PUSH1 0x10 SWAP1 PUSH2 0x2144 JUMP JUMPDEST SWAP3 POP PUSH2 0x1A8D JUMP JUMPDEST PUSH1 0x1 PUSH1 0x1 PUSH1 0xA0 SHL SUB DUP3 AND PUSH1 0x0 SWAP1 DUP2 MSTORE PUSH1 0x8 PUSH1 0x20 SWAP1 DUP2 MSTORE PUSH1 0x40 DUP1 DUP4 KECCAK256 SLOAD PUSH1 0x9 SWAP1 SWAP3 MSTORE SWAP1 SWAP2 KECCAK256 SLOAD PUSH2 0x1A8A SWAP2 PUSH1 0x10 SWAP1 PUSH2 0x2144 JUMP JUMPDEST SWAP3 POP JUMPDEST DUP1 PUSH2 0x1A97 DUP2 PUSH2 0x2F42 JUMP JUMPDEST SWAP2 POP POP PUSH2 0x191E JUMP JUMPDEST POP PUSH3 0x10000 DUP3 GT ISZERO PUSH2 0x1AE8 JUMPI PUSH2 0x1AB8 PUSH3 0x10000 DUP4 PUSH2 0x2F0E JUMP JUMPDEST PUSH1 0x2 PUSH1 0x0 DUP3 DUP3 SLOAD PUSH2 0x1AC9 SWAP2 SWAP1 PUSH2 0x2F74 JUMP JUMPDEST SWAP1 SWAP2 SSTORE POP POP PUSH1 0x2 SLOAD PUSH3 0x10000 LT ISZERO PUSH2 0x1AE3 JUMPI PUSH3 0x10000 PUSH1 0x2 SSTORE JUMPDEST PUSH2 0x1B38 JUMP JUMPDEST PUSH3 0x10000 DUP3 LT ISZERO PUSH2 0x1B38 JUMPI PUSH1 0x2 SLOAD PUSH2 0x1B03 DUP4 PUSH3 0x10000 PUSH2 0x2F0E JUMP JUMPDEST LT ISZERO PUSH2 0x1B32 JUMPI PUSH2 0x1B16 DUP3 PUSH3 0x10000 PUSH2 0x2F0E JUMP JUMPDEST PUSH1 0x2 PUSH1 0x0 DUP3 DUP3 SLOAD PUSH2 0x1B27 SWAP2 SWAP1 PUSH2 0x2F0E JUMP JUMPDEST SWAP1 SWAP2 SSTORE POP PUSH2 0x1B38 SWAP1 POP JUMP JUMPDEST PUSH1 0x0 PUSH1 0x2 SSTORE JUMPDEST POP POP POP JUMPDEST PUSH1 0x1 DUP1 SLOAD PUSH2 0xFF00 NOT AND SWAP1 SSTORE PUSH1 0x5 SLOAD PUSH1 0x40 MLOAD PUSH4 0x6C370B11 PUSH1 0xE0 SHL DUP2 MSTORE PUSH1 0x1 PUSH1 0x1 PUSH1 0xA0 SHL SUB SWAP1 SWAP2 AND SWAP1 PUSH4 0x6C370B11 SWAP1 PUSH2 0x99D SWAP1 CALLER SWAP1 DUP8 SWAP1 DUP8 SWAP1 PUSH1 0x4 ADD PUSH2 0x2A79 JUMP JUMPDEST PUSH1 0x1 SLOAD PUSH1 0xFF AND ISZERO DUP1 ISZERO PUSH2 0x1B98 JUMPI POP PUSH1 0x4 SLOAD PUSH1 0x1 PUSH1 0x1 PUSH1 0xA0 SHL SUB AND CALLER EQ JUMPDEST DUP1 PUSH2 0x1BAD JUMPI POP PUSH1 0x5 SLOAD PUSH1 0x1 PUSH1 0x1 PUSH1 0xA0 SHL SUB AND CALLER EQ JUMPDEST DUP1 PUSH2 0x1BC2 JUMPI POP PUSH1 0x3 SLOAD PUSH1 0x1 PUSH1 0x1 PUSH1 0xA0 SHL SUB AND CALLER EQ JUMPDEST PUSH2 0x1BCB JUMPI PUSH1 0x0 DUP1 REVERT JUMPDEST PUSH1 0x1 PUSH1 0x0 JUMPDEST PUSH2 0x1BD8 PUSH2 0xDD9 JUMP JUMPDEST DUP2 LT ISZERO PUSH2 0x1C0F JUMPI PUSH2 0x1BEF PUSH1 0xA PUSH1 0x0 PUSH2 0x666 DUP5 PUSH2 0x1341 JUMP JUMPDEST ISZERO PUSH2 0x1BFD JUMPI PUSH1 0x0 SWAP2 POP PUSH2 0x1C0F JUMP JUMPDEST DUP1 PUSH2 0x1C07 DUP2 PUSH2 0x2F42 JUMP JUMPDEST SWAP2 POP POP PUSH2 0x1BD0 JUMP JUMPDEST POP DUP1 DUP1 ISZERO PUSH2 0x1C25 JUMPI POP PUSH1 0x1 SLOAD PUSH2 0x100 SWAP1 DIV PUSH1 0xFF AND ISZERO JUMPDEST ISZERO PUSH2 0x1DBD JUMPI PUSH1 0x5 SLOAD PUSH1 0x40 DUP1 MLOAD PUSH4 0x2B5B729 PUSH1 0xE4 SHL DUP2 MSTORE SWAP1 MLOAD PUSH1 0x0 SWAP3 PUSH1 0x1 PUSH1 0x1 PUSH1 0xA0 SHL SUB AND SWAP2 PUSH4 0x2B5B7290 SWAP2 PUSH1 0x4 DUP1 DUP4 ADD SWAP3 PUSH1 0x20 SWAP3 SWAP2 SWAP1 DUP3 SWAP1 SUB ADD DUP2 DUP7 GAS STATICCALL ISZERO DUP1 ISZERO PUSH2 0x1C74 JUMPI RETURNDATASIZE PUSH1 0x0 DUP1 RETURNDATACOPY RETURNDATASIZE PUSH1 0x0 REVERT JUMPDEST POP POP POP POP PUSH1 0x40 MLOAD RETURNDATASIZE PUSH1 0x1F NOT PUSH1 0x1F DUP3 ADD AND DUP3 ADD DUP1 PUSH1 0x40 MSTORE POP DUP2 ADD SWAP1 PUSH2 0x1C98 SWAP2 SWAP1 PUSH2 0x2F5B JUMP JUMPDEST SWAP1 POP PUSH1 0x0 JUMPDEST DUP2 DUP2 LT ISZERO PUSH2 0x1DAB JUMPI PUSH1 0x5 SLOAD PUSH1 0x40 MLOAD PUSH4 0x256F2FDD PUSH1 0xE1 SHL DUP2 MSTORE PUSH1 0x4 DUP2 ADD DUP4 SWAP1 MSTORE PUSH1 0x0 SWAP2 PUSH1 0x1 PUSH1 0x1 PUSH1 0xA0 SHL SUB AND SWAP1 PUSH4 0x4ADE5FBA SWAP1 PUSH1 0x24 ADD PUSH1 0x20 PUSH1 0x40 MLOAD DUP1 DUP4 SUB DUP2 DUP7 GAS STATICCALL ISZERO DUP1 ISZERO PUSH2 0x1CEF JUMPI RETURNDATASIZE PUSH1 0x0 DUP1 RETURNDATACOPY RETURNDATASIZE PUSH1 0x0 REVERT JUMPDEST POP POP POP POP PUSH1 0x40 MLOAD RETURNDATASIZE PUSH1 0x1F NOT PUSH1 0x1F DUP3 ADD AND DUP3 ADD DUP1 PUSH1 0x40 MSTORE POP DUP2 ADD SWAP1 PUSH2 0x1D13 SWAP2 SWAP1 PUSH2 0x2EDB JUMP JUMPDEST PUSH1 0x1 PUSH1 0x1 PUSH1 0xA0 SHL SUB AND PUSH4 0x8B0441E2 PUSH1 0x40 MLOAD DUP2 PUSH4 0xFFFFFFFF AND PUSH1 0xE0 SHL DUP2 MSTORE PUSH1 0x4 ADD PUSH1 0x20 PUSH1 0x40 MLOAD DUP1 DUP4 SUB DUP2 DUP7 GAS STATICCALL ISZERO DUP1 ISZERO PUSH2 0x1D50 JUMPI RETURNDATASIZE PUSH1 0x0 DUP1 RETURNDATACOPY RETURNDATASIZE PUSH1 0x0 REVERT JUMPDEST POP POP POP POP PUSH1 0x40 MLOAD RETURNDATASIZE PUSH1 0x1F NOT PUSH1 0x1F DUP3 ADD AND DUP3 ADD DUP1 PUSH1 0x40 MSTORE POP DUP2 ADD SWAP1 PUSH2 0x1D74 SWAP2 SWAP1 PUSH2 0x2EDB JUMP JUMPDEST PUSH1 0x1 PUSH1 0x1 PUSH1 0xA0 SHL SUB AND PUSH1 0x0 SWAP1 DUP2 MSTORE PUSH1 0x9 PUSH1 0x20 SWAP1 DUP2 MSTORE PUSH1 0x40 DUP1 DUP4 KECCAK256 SLOAD PUSH1 0x8 SWAP1 SWAP3 MSTORE SWAP1 SWAP2 KECCAK256 SSTORE POP DUP1 PUSH2 0x1DA3 DUP2 PUSH2 0x2F42 JUMP JUMPDEST SWAP2 POP POP PUSH2 0x1C9D JUMP JUMPDEST POP POP PUSH1 0x1 DUP1 SLOAD PUSH2 0xFF00 NOT AND PUSH2 0x100 OR SWAP1 SSTORE JUMPDEST PUSH2 0x1DC5 PUSH2 0x21BA JUMP JUMPDEST PUSH2 0x1DCE DUP4 PUSH2 0x1373 JUMP JUMPDEST ISZERO ISZERO PUSH1 0x0 SUB PUSH2 0x1DF0 JUMPI PUSH1 0x40 MLOAD PUSH4 0x1C44F549 PUSH1 0xE3 SHL DUP2 MSTORE PUSH1 0x4 ADD PUSH1 0x40 MLOAD DUP1 SWAP2 SUB SWAP1 REVERT JUMPDEST PUSH2 0x1DF9 DUP4 PUSH2 0x12BF JUMP JUMPDEST PUSH1 0x40 DUP1 DUP7 ADD SWAP2 SWAP1 SWAP2 MSTORE PUSH1 0x1 PUSH1 0x1 PUSH1 0xA0 SHL SUB SWAP2 DUP3 AND PUSH1 0x20 DUP1 DUP8 ADD SWAP2 SWAP1 SWAP2 MSTORE SWAP3 SWAP1 SWAP2 AND DUP1 DUP6 MSTORE PUSH1 0x0 SWAP1 DUP2 MSTORE PUSH1 0x7 SWAP1 SWAP3 MSTORE SWAP1 KECCAK256 SLOAD PUSH1 0xFF AND PUSH2 0x1E3C JUMPI DUP2 MLOAD PUSH2 0x1E3C SWAP1 PUSH2 0x14B4 JUMP JUMPDEST PUSH1 0x20 DUP1 DUP4 ADD MLOAD PUSH1 0x1 PUSH1 0x1 PUSH1 0xA0 SHL SUB AND PUSH1 0x0 SWAP1 DUP2 MSTORE PUSH1 0x7 SWAP1 SWAP2 MSTORE PUSH1 0x40 SWAP1 KECCAK256 SLOAD PUSH1 0xFF AND PUSH2 0x1E6E JUMPI PUSH2 0x1E6E DUP3 PUSH1 0x20 ADD MLOAD PUSH2 0x14B4 JUMP JUMPDEST ADDRESS PUSH2 0x180 DUP4 ADD MSTORE PUSH1 0x40 MLOAD PUSH1 0x0 SWAP1 PUSH2 0x1E89 SWAP1 DUP5 SWAP1 PUSH1 0x24 ADD PUSH2 0x30B6 JUMP JUMPDEST PUSH1 0x40 DUP1 MLOAD PUSH1 0x1F NOT DUP2 DUP5 SUB ADD DUP2 MSTORE SWAP2 SWAP1 MSTORE PUSH1 0x20 DUP2 ADD DUP1 MLOAD PUSH1 0x1 PUSH1 0x1 PUSH1 0xE0 SHL SUB AND PUSH4 0x38C928F9 PUSH1 0xE2 SHL OR SWAP1 MSTORE PUSH1 0x6 SLOAD SWAP1 SWAP2 POP PUSH1 0x0 SWAP1 PUSH2 0x1ECF SWAP1 PUSH1 0x1 PUSH1 0x1 PUSH1 0xA0 SHL SUB AND DUP4 PUSH2 0x2640 JUMP JUMPDEST SWAP1 POP PUSH1 0x0 DUP1 DUP3 DUP1 PUSH1 0x20 ADD SWAP1 MLOAD DUP2 ADD SWAP1 PUSH2 0x1EE8 SWAP2 SWAP1 PUSH2 0x3228 JUMP JUMPDEST SWAP2 POP SWAP2 POP PUSH1 0x0 JUMPDEST DUP3 MLOAD DUP2 LT ISZERO PUSH2 0x2017 JUMPI PUSH1 0x1 PUSH1 0x1 PUSH1 0xA0 SHL SUB DUP9 AND PUSH1 0x0 SWAP1 DUP2 MSTORE PUSH1 0xB PUSH1 0x20 MSTORE PUSH1 0x40 DUP2 KECCAK256 DUP5 MLOAD SWAP1 SWAP2 SWAP1 DUP6 SWAP1 DUP5 SWAP1 DUP2 LT PUSH2 0x1F27 JUMPI PUSH2 0x1F27 PUSH2 0x328C JUMP JUMPDEST PUSH1 0x20 MUL PUSH1 0x20 ADD ADD MLOAD DUP2 MSTORE PUSH1 0x20 ADD SWAP1 DUP2 MSTORE PUSH1 0x20 ADD PUSH1 0x0 KECCAK256 SLOAD PUSH1 0x0 SUB PUSH2 0x1F87 JUMPI PUSH2 0x1F85 DUP4 DUP3 DUP2 MLOAD DUP2 LT PUSH2 0x1F5A JUMPI PUSH2 0x1F5A PUSH2 0x328C JUMP JUMPDEST PUSH1 0x20 SWAP1 DUP2 MUL SWAP2 SWAP1 SWAP2 ADD DUP2 ADD MLOAD PUSH1 0x1 PUSH1 0x1 PUSH1 0xA0 SHL SUB DUP12 AND PUSH1 0x0 SWAP1 DUP2 MSTORE PUSH1 0xA SWAP1 SWAP3 MSTORE PUSH1 0x40 SWAP1 SWAP2 KECCAK256 SWAP1 PUSH2 0x2716 JUMP JUMPDEST POP JUMPDEST DUP2 DUP2 DUP2 MLOAD DUP2 LT PUSH2 0x1F99 JUMPI PUSH2 0x1F99 PUSH2 0x328C JUMP JUMPDEST PUSH1 0x20 MUL PUSH1 0x20 ADD ADD MLOAD PUSH1 0xB PUSH1 0x0 DUP11 PUSH1 0x1 PUSH1 0x1 PUSH1 0xA0 SHL SUB AND PUSH1 0x1 PUSH1 0x1 PUSH1 0xA0 SHL SUB AND DUP2 MSTORE PUSH1 0x20 ADD SWAP1 DUP2 MSTORE PUSH1 0x20 ADD PUSH1 0x0 KECCAK256 PUSH1 0x0 DUP6 DUP5 DUP2 MLOAD DUP2 LT PUSH2 0x1FDA JUMPI PUSH2 0x1FDA PUSH2 0x328C JUMP JUMPDEST PUSH1 0x20 MUL PUSH1 0x20 ADD ADD MLOAD DUP2 MSTORE PUSH1 0x20 ADD SWAP1 DUP2 MSTORE PUSH1 0x20 ADD PUSH1 0x0 KECCAK256 PUSH1 0x0 DUP3 DUP3 SLOAD PUSH2 0x1FFF SWAP2 SWAP1 PUSH2 0x2F74 JUMP JUMPDEST SWAP1 SWAP2 SSTORE POP DUP2 SWAP1 POP PUSH2 0x200F DUP2 PUSH2 0x2F42 JUMP JUMPDEST SWAP2 POP POP PUSH2 0x1EEF JUMP JUMPDEST POP DUP6 MLOAD PUSH1 0x40 MLOAD PUSH4 0x70A08231 PUSH1 0xE0 SHL DUP2 MSTORE ADDRESS PUSH1 0x4 DUP3 ADD MSTORE PUSH1 0x1 PUSH1 0x1 PUSH1 0xA0 SHL SUB SWAP1 SWAP2 AND SWAP1 PUSH4 0x70A08231 SWAP1 PUSH1 0x24 ADD PUSH1 0x20 PUSH1 0x40 MLOAD DUP1 DUP4 SUB DUP2 DUP7 GAS STATICCALL ISZERO DUP1 ISZERO PUSH2 0x205F JUMPI RETURNDATASIZE PUSH1 0x0 DUP1 RETURNDATACOPY RETURNDATASIZE PUSH1 0x0 REVERT JUMPDEST POP POP POP POP PUSH1 0x40 MLOAD RETURNDATASIZE PUSH1 0x1F NOT PUSH1 0x1F DUP3 ADD AND DUP3 ADD DUP1 PUSH1 0x40 MSTORE POP DUP2 ADD SWAP1 PUSH2 0x2083 SWAP2 SWAP1 PUSH2 0x2F5B JUMP JUMPDEST DUP7 MLOAD PUSH1 0x1 PUSH1 0x1 PUSH1 0xA0 SHL SUB SWAP1 DUP2 AND PUSH1 0x0 SWAP1 DUP2 MSTORE PUSH1 0x9 PUSH1 0x20 SWAP1 DUP2 MSTORE PUSH1 0x40 SWAP2 DUP3 SWAP1 KECCAK256 SWAP4 SWAP1 SWAP4 SSTORE SWAP2 DUP9 ADD MLOAD SWAP2 MLOAD PUSH4 0x70A08231 PUSH1 0xE0 SHL DUP2 MSTORE ADDRESS PUSH1 0x4 DUP3 ADD MSTORE SWAP2 AND SWAP1 PUSH4 0x70A08231 SWAP1 PUSH1 0x24 ADD PUSH1 0x20 PUSH1 0x40 MLOAD DUP1 DUP4 SUB DUP2 DUP7 GAS STATICCALL ISZERO DUP1 ISZERO PUSH2 0x20E5 JUMPI RETURNDATASIZE PUSH1 0x0 DUP1 RETURNDATACOPY RETURNDATASIZE PUSH1 0x0 REVERT JUMPDEST POP POP POP POP PUSH1 0x40 MLOAD RETURNDATASIZE PUSH1 0x1F NOT PUSH1 0x1F DUP3 ADD AND DUP3 ADD DUP1 PUSH1 0x40 MSTORE POP DUP2 ADD SWAP1 PUSH2 0x2109 SWAP2 SWAP1 PUSH2 0x2F5B JUMP JUMPDEST PUSH1 0x20 DUP1 DUP9 ADD MLOAD PUSH1 0x1 PUSH1 0x1 PUSH1 0xA0 SHL SUB AND PUSH1 0x0 SWAP1 DUP2 MSTORE PUSH1 0x9 SWAP1 SWAP2 MSTORE PUSH1 0x40 SWAP1 KECCAK256 SSTORE POP PUSH2 0x2135 SWAP3 POP PUSH2 0x2639 SWAP2 POP POP JUMP JUMPDEST POP POP POP JUMP JUMPDEST PUSH1 0x0 PUSH2 0x4F1 DUP3 SLOAD SWAP1 JUMP JUMPDEST PUSH1 0x0 PUSH1 0xFF DUP4 GT ISZERO PUSH2 0x2170 JUMPI PUSH1 0x40 MLOAD PUSH4 0xB72ECF5 PUSH1 0xE4 SHL DUP2 MSTORE PUSH1 0x4 DUP2 ADD DUP5 SWAP1 MSTORE PUSH1 0x24 ADD JUMPDEST PUSH1 0x40 MLOAD DUP1 SWAP2 SUB SWAP1 REVERT JUMPDEST DUP4 DUP4 SHL PUSH2 0x100 DUP5 SWAP1 SUB DUP6 SWAP1 SHR PUSH2 0x218C DUP7 PUSH1 0x1 DUP8 SHL DUP7 DUP6 DUP6 PUSH2 0x2722 JUMP JUMPDEST SWAP7 SWAP6 POP POP POP POP POP POP JUMP JUMPDEST PUSH1 0x0 DUP2 DUP4 LT ISZERO PUSH2 0x21A7 JUMPI POP DUP2 PUSH2 0x4F1 JUMP JUMPDEST POP DUP1 PUSH2 0x4F1 JUMP JUMPDEST PUSH1 0x0 PUSH2 0xDD2 DUP4 DUP4 PUSH2 0x27DC JUMP JUMPDEST PUSH1 0x2 PUSH1 0x0 SLOAD SUB PUSH2 0x220C JUMPI PUSH1 0x40 MLOAD PUSH3 0x461BCD PUSH1 0xE5 SHL DUP2 MSTORE PUSH1 0x20 PUSH1 0x4 DUP3 ADD MSTORE PUSH1 0x1F PUSH1 0x24 DUP3 ADD MSTORE PUSH32 0x5265656E7472616E637947756172643A207265656E7472616E742063616C6C00 PUSH1 0x44 DUP3 ADD MSTORE PUSH1 0x64 ADD PUSH2 0x2167 JUMP JUMPDEST PUSH1 0x2 PUSH1 0x0 SSTORE JUMP JUMPDEST PUSH2 0x221C DUP5 PUSH2 0x1373 JUMP JUMPDEST ISZERO ISZERO PUSH1 0x0 SUB PUSH2 0x223E JUMPI PUSH1 0x40 MLOAD PUSH4 0x1C44F549 PUSH1 0xE3 SHL DUP2 MSTORE PUSH1 0x4 ADD PUSH1 0x40 MLOAD DUP1 SWAP2 SUB SWAP1 REVERT JUMPDEST PUSH1 0x6 SLOAD PUSH1 0x40 MLOAD PUSH4 0xE985E9C5 PUSH1 0xE0 SHL DUP2 MSTORE ADDRESS PUSH1 0x4 DUP3 ADD MSTORE PUSH1 0x1 PUSH1 0x1 PUSH1 0xA0 SHL SUB SWAP2 DUP3 AND PUSH1 0x24 DUP3 ADD MSTORE SWAP1 DUP6 AND SWAP1 PUSH4 0xE985E9C5 SWAP1 PUSH1 0x44 ADD PUSH1 0x20 PUSH1 0x40 MLOAD DUP1 DUP4 SUB DUP2 DUP7 GAS STATICCALL ISZERO DUP1 ISZERO PUSH2 0x228E JUMPI RETURNDATASIZE PUSH1 0x0 DUP1 RETURNDATACOPY RETURNDATASIZE PUSH1 0x0 REVERT JUMPDEST POP POP POP POP PUSH1 0x40 MLOAD RETURNDATASIZE PUSH1 0x1F NOT PUSH1 0x1F DUP3 ADD AND DUP3 ADD DUP1 PUSH1 0x40 MSTORE POP DUP2 ADD SWAP1 PUSH2 0x22B2 SWAP2 SWAP1 PUSH2 0x2F25 JUMP JUMPDEST PUSH2 0x231D JUMPI PUSH1 0x6 SLOAD PUSH1 0x40 MLOAD PUSH4 0xA22CB465 PUSH1 0xE0 SHL DUP2 MSTORE PUSH1 0x1 PUSH1 0x1 PUSH1 0xA0 SHL SUB SWAP2 DUP3 AND PUSH1 0x4 DUP3 ADD MSTORE PUSH1 0x1 PUSH1 0x24 DUP3 ADD MSTORE SWAP1 DUP6 AND SWAP1 PUSH4 0xA22CB465 SWAP1 PUSH1 0x44 ADD PUSH1 0x0 PUSH1 0x40 MLOAD DUP1 DUP4 SUB DUP2 PUSH1 0x0 DUP8 DUP1 EXTCODESIZE ISZERO DUP1 ISZERO PUSH2 0x2304 JUMPI PUSH1 0x0 DUP1 REVERT JUMPDEST POP GAS CALL ISZERO DUP1 ISZERO PUSH2 0x2318 JUMPI RETURNDATASIZE PUSH1 0x0 DUP1 RETURNDATACOPY RETURNDATASIZE PUSH1 0x0 REVERT JUMPDEST POP POP POP POP JUMPDEST PUSH1 0x0 DUP1 PUSH1 0x0 PUSH2 0x232B DUP8 PUSH2 0x12BF JUMP JUMPDEST PUSH1 0x5 SLOAD PUSH1 0x40 MLOAD PUSH4 0x42C90263 PUSH1 0xE1 SHL DUP2 MSTORE SWAP4 SWAP7 POP SWAP2 SWAP5 POP SWAP3 POP PUSH1 0x1 PUSH1 0x1 PUSH1 0xA0 SHL SUB AND SWAP1 PUSH4 0x859204C6 SWAP1 PUSH2 0x2367 SWAP1 DUP11 SWAP1 DUP11 SWAP1 DUP9 SWAP1 DUP9 SWAP1 PUSH1 0x4 ADD PUSH2 0x307B JUMP JUMPDEST PUSH1 0x0 PUSH1 0x40 MLOAD DUP1 DUP4 SUB DUP2 PUSH1 0x0 DUP8 DUP1 EXTCODESIZE ISZERO DUP1 ISZERO PUSH2 0x2381 JUMPI PUSH1 0x0 DUP1 REVERT JUMPDEST POP GAS CALL ISZERO DUP1 ISZERO PUSH2 0x2395 JUMPI RETURNDATASIZE PUSH1 0x0 DUP1 RETURNDATACOPY RETURNDATASIZE PUSH1 0x0 REVERT JUMPDEST POP POP POP POP PUSH1 0x0 DUP4 DUP4 DUP4 PUSH1 0x0 DUP1 DUP12 DUP12 ADDRESS DUP13 PUSH1 0x40 MLOAD PUSH1 0x24 ADD PUSH2 0x23BD SWAP10 SWAP9 SWAP8 SWAP7 SWAP6 SWAP5 SWAP4 SWAP3 SWAP2 SWAP1 PUSH2 0x32A2 JUMP JUMPDEST PUSH1 0x40 DUP1 MLOAD PUSH1 0x1F NOT DUP2 DUP5 SUB ADD DUP2 MSTORE SWAP2 SWAP1 MSTORE PUSH1 0x20 DUP2 ADD DUP1 MLOAD PUSH1 0x1 PUSH1 0x1 PUSH1 0xE0 SHL SUB AND PUSH4 0x6110ACDB PUSH1 0xE1 SHL OR SWAP1 MSTORE PUSH1 0x6 SLOAD SWAP1 SWAP2 POP PUSH2 0x2400 SWAP1 PUSH1 0x1 PUSH1 0x1 PUSH1 0xA0 SHL SUB AND DUP3 PUSH2 0x2640 JUMP JUMPDEST POP PUSH1 0x0 JUMPDEST DUP8 MLOAD DUP2 LT ISZERO PUSH2 0x252B JUMPI DUP7 DUP2 DUP2 MLOAD DUP2 LT PUSH2 0x241F JUMPI PUSH2 0x241F PUSH2 0x328C JUMP JUMPDEST PUSH1 0x20 MUL PUSH1 0x20 ADD ADD MLOAD PUSH1 0xB PUSH1 0x0 DUP12 PUSH1 0x1 PUSH1 0x1 PUSH1 0xA0 SHL SUB AND PUSH1 0x1 PUSH1 0x1 PUSH1 0xA0 SHL SUB AND DUP2 MSTORE PUSH1 0x20 ADD SWAP1 DUP2 MSTORE PUSH1 0x20 ADD PUSH1 0x0 KECCAK256 PUSH1 0x0 DUP11 DUP5 DUP2 MLOAD DUP2 LT PUSH2 0x2460 JUMPI PUSH2 0x2460 PUSH2 0x328C JUMP JUMPDEST PUSH1 0x20 MUL PUSH1 0x20 ADD ADD MLOAD DUP2 MSTORE PUSH1 0x20 ADD SWAP1 DUP2 MSTORE PUSH1 0x20 ADD PUSH1 0x0 KECCAK256 PUSH1 0x0 DUP3 DUP3 SLOAD PUSH2 0x2485 SWAP2 SWAP1 PUSH2 0x2F0E JUMP JUMPDEST SWAP1 SWAP2 SSTORE POP POP PUSH1 0x1 PUSH1 0x1 PUSH1 0xA0 SHL SUB DUP10 AND PUSH1 0x0 SWAP1 DUP2 MSTORE PUSH1 0xB PUSH1 0x20 MSTORE PUSH1 0x40 DUP2 KECCAK256 DUP10 MLOAD SWAP1 SWAP2 SWAP1 DUP11 SWAP1 DUP5 SWAP1 DUP2 LT PUSH2 0x24B9 JUMPI PUSH2 0x24B9 PUSH2 0x328C JUMP JUMPDEST PUSH1 0x20 MUL PUSH1 0x20 ADD ADD MLOAD DUP2 MSTORE PUSH1 0x20 ADD SWAP1 DUP2 MSTORE PUSH1 0x20 ADD PUSH1 0x0 KECCAK256 SLOAD PUSH1 0x0 SUB PUSH2 0x2519 JUMPI PUSH2 0x2517 DUP9 DUP3 DUP2 MLOAD DUP2 LT PUSH2 0x24EC JUMPI PUSH2 0x24EC PUSH2 0x328C JUMP JUMPDEST PUSH1 0x20 SWAP1 DUP2 MUL SWAP2 SWAP1 SWAP2 ADD DUP2 ADD MLOAD PUSH1 0x1 PUSH1 0x1 PUSH1 0xA0 SHL SUB DUP13 AND PUSH1 0x0 SWAP1 DUP2 MSTORE PUSH1 0xA SWAP1 SWAP3 MSTORE PUSH1 0x40 SWAP1 SWAP2 KECCAK256 SWAP1 PUSH2 0x2806 JUMP JUMPDEST POP JUMPDEST DUP1 PUSH2 0x2523 DUP2 PUSH2 0x2F42 JUMP JUMPDEST SWAP2 POP POP PUSH2 0x2404 JUMP JUMPDEST POP PUSH1 0x40 MLOAD PUSH4 0x70A08231 PUSH1 0xE0 SHL DUP2 MSTORE ADDRESS PUSH1 0x4 DUP3 ADD MSTORE PUSH1 0x1 PUSH1 0x1 PUSH1 0xA0 SHL SUB DUP6 AND SWAP1 PUSH4 0x70A08231 SWAP1 PUSH1 0x24 ADD PUSH1 0x20 PUSH1 0x40 MLOAD DUP1 DUP4 SUB DUP2 DUP7 GAS STATICCALL ISZERO DUP1 ISZERO PUSH2 0x2570 JUMPI RETURNDATASIZE PUSH1 0x0 DUP1 RETURNDATACOPY RETURNDATASIZE PUSH1 0x0 REVERT JUMPDEST POP POP POP POP PUSH1 0x40 MLOAD RETURNDATASIZE PUSH1 0x1F NOT PUSH1 0x1F DUP3 ADD AND DUP3 ADD DUP1 PUSH1 0x40 MSTORE POP DUP2 ADD SWAP1 PUSH2 0x2594 SWAP2 SWAP1 PUSH2 0x2F5B JUMP JUMPDEST PUSH1 0x1 PUSH1 0x1 PUSH1 0xA0 SHL SUB DUP6 DUP2 AND PUSH1 0x0 SWAP1 DUP2 MSTORE PUSH1 0x9 PUSH1 0x20 MSTORE PUSH1 0x40 SWAP1 DUP2 SWAP1 KECCAK256 SWAP3 SWAP1 SWAP3 SSTORE SWAP1 MLOAD PUSH4 0x70A08231 PUSH1 0xE0 SHL DUP2 MSTORE ADDRESS PUSH1 0x4 DUP3 ADD MSTORE SWAP1 DUP5 AND SWAP1 PUSH4 0x70A08231 SWAP1 PUSH1 0x24 ADD PUSH1 0x20 PUSH1 0x40 MLOAD DUP1 DUP4 SUB DUP2 DUP7 GAS STATICCALL ISZERO DUP1 ISZERO PUSH2 0x25EF JUMPI RETURNDATASIZE PUSH1 0x0 DUP1 RETURNDATACOPY RETURNDATASIZE PUSH1 0x0 REVERT JUMPDEST POP POP POP POP PUSH1 0x40 MLOAD RETURNDATASIZE PUSH1 0x1F NOT PUSH1 0x1F DUP3 ADD AND DUP3 ADD DUP1 PUSH1 0x40 MSTORE POP DUP2 ADD SWAP1 PUSH2 0x2613 SWAP2 SWAP1 PUSH2 0x2F5B JUMP JUMPDEST PUSH1 0x1 PUSH1 0x1 PUSH1 0xA0 SHL SUB SWAP1 SWAP4 AND PUSH1 0x0 SWAP1 DUP2 MSTORE PUSH1 0x9 PUSH1 0x20 MSTORE PUSH1 0x40 SWAP1 KECCAK256 SWAP3 SWAP1 SWAP3 SSTORE POP POP POP POP POP POP POP JUMP JUMPDEST PUSH1 0x1 PUSH1 0x0 SSTORE JUMP JUMPDEST PUSH1 0x60 PUSH1 0x0 DUP1 DUP5 PUSH1 0x1 PUSH1 0x1 PUSH1 0xA0 SHL SUB AND DUP5 PUSH1 0x40 MLOAD PUSH2 0x265D SWAP2 SWAP1 PUSH2 0x3318 JUMP JUMPDEST PUSH1 0x0 PUSH1 0x40 MLOAD DUP1 DUP4 SUB DUP2 PUSH1 0x0 DUP7 GAS CALL SWAP2 POP POP RETURNDATASIZE DUP1 PUSH1 0x0 DUP2 EQ PUSH2 0x269A JUMPI PUSH1 0x40 MLOAD SWAP2 POP PUSH1 0x1F NOT PUSH1 0x3F RETURNDATASIZE ADD AND DUP3 ADD PUSH1 0x40 MSTORE RETURNDATASIZE DUP3 MSTORE RETURNDATASIZE PUSH1 0x0 PUSH1 0x20 DUP5 ADD RETURNDATACOPY PUSH2 0x269F JUMP JUMPDEST PUSH1 0x60 SWAP2 POP JUMPDEST POP SWAP2 POP SWAP2 POP DUP2 ISZERO PUSH2 0x26E4 JUMPI DUP1 MLOAD ISZERO DUP1 ISZERO PUSH2 0x26C1 JUMPI POP PUSH1 0x1 PUSH1 0x1 PUSH1 0xA0 SHL SUB DUP6 AND EXTCODESIZE ISZERO JUMPDEST ISZERO PUSH2 0x26DF JUMPI PUSH1 0x40 MLOAD PUSH4 0x363DBC39 PUSH1 0xE0 SHL DUP2 MSTORE PUSH1 0x4 ADD PUSH1 0x40 MLOAD DUP1 SWAP2 SUB SWAP1 REVERT JUMPDEST PUSH2 0x270E JUMP JUMPDEST DUP1 MLOAD PUSH1 0x0 SUB PUSH2 0x2706 JUMPI PUSH1 0x40 MLOAD PUSH4 0xA0856A61 PUSH1 0xE0 SHL DUP2 MSTORE PUSH1 0x4 ADD PUSH1 0x40 MLOAD DUP1 SWAP2 SUB SWAP1 REVERT JUMPDEST DUP1 MLOAD DUP2 PUSH1 0x20 ADD REVERT JUMPDEST SWAP5 SWAP4 POP POP POP POP JUMP JUMPDEST PUSH1 0x0 PUSH2 0xDD2 DUP4 DUP4 PUSH2 0x2812 JUMP JUMPDEST PUSH1 0x0 DUP2 PUSH1 0x0 SUB PUSH2 0x2743 JUMPI DUP4 DUP4 DUP2 PUSH2 0x273B JUMPI PUSH2 0x273B PUSH2 0x3353 JUMP JUMPDEST DIV SWAP1 POP PUSH2 0x27D3 JUMP JUMPDEST DUP4 DUP3 LT PUSH2 0x276D JUMPI PUSH1 0x40 MLOAD PUSH4 0x656B542B PUSH1 0xE1 SHL DUP2 MSTORE PUSH1 0x4 DUP2 ADD DUP4 SWAP1 MSTORE PUSH1 0x24 DUP2 ADD DUP6 SWAP1 MSTORE PUSH1 0x44 ADD PUSH2 0x2167 JUMP JUMPDEST PUSH1 0x0 DUP5 DUP7 DUP9 MULMOD PUSH1 0x1 DUP7 NOT DUP2 ADD DUP8 AND SWAP7 DUP8 SWAP1 DIV SWAP7 PUSH1 0x0 DUP2 SWAP1 SUB DUP2 SWAP1 DIV SWAP1 SWAP2 ADD DUP7 DUP4 GT SWAP1 SWAP6 SUB SWAP5 DUP6 MUL SWAP2 SWAP1 SWAP6 SUB SWAP5 SWAP1 SWAP5 DIV SWAP4 SWAP1 SWAP4 OR SWAP3 POP POP PUSH1 0x2 PUSH1 0x3 DUP5 MUL DUP2 XOR DUP1 DUP6 MUL DUP3 SUB MUL DUP1 DUP6 MUL DUP3 SUB MUL DUP1 DUP6 MUL DUP3 SUB MUL DUP1 DUP6 MUL DUP3 SUB MUL DUP1 DUP6 MUL DUP3 SUB MUL DUP1 DUP6 MUL SWAP1 SWAP2 SUB MUL DUP3 MUL JUMPDEST SWAP6 SWAP5 POP POP POP POP POP JUMP JUMPDEST PUSH1 0x0 DUP3 PUSH1 0x0 ADD DUP3 DUP2 SLOAD DUP2 LT PUSH2 0x27F3 JUMPI PUSH2 0x27F3 PUSH2 0x328C JUMP JUMPDEST SWAP1 PUSH1 0x0 MSTORE PUSH1 0x20 PUSH1 0x0 KECCAK256 ADD SLOAD SWAP1 POP SWAP3 SWAP2 POP POP JUMP JUMPDEST PUSH1 0x0 PUSH2 0xDD2 DUP4 DUP4 PUSH2 0x2861 JUMP JUMPDEST PUSH1 0x0 DUP2 DUP2 MSTORE PUSH1 0x1 DUP4 ADD PUSH1 0x20 MSTORE PUSH1 0x40 DUP2 KECCAK256 SLOAD PUSH2 0x2859 JUMPI POP DUP2 SLOAD PUSH1 0x1 DUP2 DUP2 ADD DUP5 SSTORE PUSH1 0x0 DUP5 DUP2 MSTORE PUSH1 0x20 DUP1 DUP3 KECCAK256 SWAP1 SWAP4 ADD DUP5 SWAP1 SSTORE DUP5 SLOAD DUP5 DUP3 MSTORE DUP3 DUP7 ADD SWAP1 SWAP4 MSTORE PUSH1 0x40 SWAP1 KECCAK256 SWAP2 SWAP1 SWAP2 SSTORE PUSH2 0x4F1 JUMP JUMPDEST POP PUSH1 0x0 PUSH2 0x4F1 JUMP JUMPDEST PUSH1 0x0 DUP2 DUP2 MSTORE PUSH1 0x1 DUP4 ADD PUSH1 0x20 MSTORE PUSH1 0x40 DUP2 KECCAK256 SLOAD DUP1 ISZERO PUSH2 0x294A JUMPI PUSH1 0x0 PUSH2 0x2885 PUSH1 0x1 DUP4 PUSH2 0x2F0E JUMP JUMPDEST DUP6 SLOAD SWAP1 SWAP2 POP PUSH1 0x0 SWAP1 PUSH2 0x2899 SWAP1 PUSH1 0x1 SWAP1 PUSH2 0x2F0E JUMP JUMPDEST SWAP1 POP DUP2 DUP2 EQ PUSH2 0x28FE JUMPI PUSH1 0x0 DUP7 PUSH1 0x0 ADD DUP3 DUP2 SLOAD DUP2 LT PUSH2 0x28B9 JUMPI PUSH2 0x28B9 PUSH2 0x328C JUMP JUMPDEST SWAP1 PUSH1 0x0 MSTORE PUSH1 0x20 PUSH1 0x0 KECCAK256 ADD SLOAD SWAP1 POP DUP1 DUP8 PUSH1 0x0 ADD DUP5 DUP2 SLOAD DUP2 LT PUSH2 0x28DC JUMPI PUSH2 0x28DC PUSH2 0x328C JUMP JUMPDEST PUSH1 0x0 SWAP2 DUP3 MSTORE PUSH1 0x20 DUP1 DUP4 KECCAK256 SWAP1 SWAP2 ADD SWAP3 SWAP1 SWAP3 SSTORE SWAP2 DUP3 MSTORE PUSH1 0x1 DUP9 ADD SWAP1 MSTORE PUSH1 0x40 SWAP1 KECCAK256 DUP4 SWAP1 SSTORE JUMPDEST DUP6 SLOAD DUP7 SWAP1 DUP1 PUSH2 0x290F JUMPI PUSH2 0x290F PUSH2 0x3369 JUMP JUMPDEST PUSH1 0x1 SWAP1 SUB DUP2 DUP2 SWAP1 PUSH1 0x0 MSTORE PUSH1 0x20 PUSH1 0x0 KECCAK256 ADD PUSH1 0x0 SWAP1 SSTORE SWAP1 SSTORE DUP6 PUSH1 0x1 ADD PUSH1 0x0 DUP7 DUP2 MSTORE PUSH1 0x20 ADD SWAP1 DUP2 MSTORE PUSH1 0x20 ADD PUSH1 0x0 KECCAK256 PUSH1 0x0 SWAP1 SSTORE PUSH1 0x1 SWAP4 POP POP POP POP PUSH2 0x4F1 JUMP JUMPDEST PUSH1 0x0 SWAP2 POP POP PUSH2 0x4F1 JUMP JUMPDEST PUSH1 0x1 PUSH1 0x1 PUSH1 0xA0 SHL SUB DUP2 AND DUP2 EQ PUSH2 0x5EF JUMPI PUSH1 0x0 DUP1 REVERT JUMPDEST DUP1 CALLDATALOAD PUSH2 0x2974 DUP2 PUSH2 0x2954 JUMP JUMPDEST SWAP2 SWAP1 POP JUMP JUMPDEST PUSH1 0x0 PUSH1 0x20 DUP3 DUP5 SUB SLT ISZERO PUSH2 0x298B JUMPI PUSH1 0x0 DUP1 REVERT JUMPDEST DUP2 CALLDATALOAD PUSH2 0xDD2 DUP2 PUSH2 0x2954 JUMP JUMPDEST PUSH1 0x0 DUP1 PUSH1 0x0 PUSH1 0x60 DUP5 DUP7 SUB SLT ISZERO PUSH2 0x29AB JUMPI PUSH1 0x0 DUP1 REVERT JUMPDEST DUP4 CALLDATALOAD PUSH2 0x29B6 DUP2 PUSH2 0x2954 JUMP JUMPDEST SWAP3 POP PUSH1 0x20 DUP5 ADD CALLDATALOAD PUSH2 0x29C6 DUP2 PUSH2 0x2954 JUMP JUMPDEST SWAP3 SWAP6 SWAP3 SWAP5 POP POP POP PUSH1 0x40 SWAP2 SWAP1 SWAP2 ADD CALLDATALOAD SWAP1 JUMP JUMPDEST DUP1 ISZERO ISZERO DUP2 EQ PUSH2 0x5EF JUMPI PUSH1 0x0 DUP1 REVERT JUMPDEST PUSH1 0x0 PUSH1 0x20 DUP3 DUP5 SUB SLT ISZERO PUSH2 0x29F7 JUMPI PUSH1 0x0 DUP1 REVERT JUMPDEST DUP2 CALLDATALOAD PUSH2 0xDD2 DUP2 PUSH2 0x29D7 JUMP JUMPDEST PUSH1 0x0 DUP1 PUSH1 0x40 DUP4 DUP6 SUB SLT ISZERO PUSH2 0x2A15 JUMPI PUSH1 0x0 DUP1 REVERT JUMPDEST DUP3 CALLDATALOAD PUSH2 0x2A20 DUP2 PUSH2 0x2954 JUMP JUMPDEST SWAP5 PUSH1 0x20 SWAP4 SWAP1 SWAP4 ADD CALLDATALOAD SWAP4 POP POP POP JUMP JUMPDEST PUSH1 0x0 DUP1 PUSH1 0x0 PUSH1 0x60 DUP5 DUP7 SUB SLT ISZERO PUSH2 0x2A43 JUMPI PUSH1 0x0 DUP1 REVERT JUMPDEST DUP4 CALLDATALOAD PUSH2 0x2A4E DUP2 PUSH2 0x2954 JUMP JUMPDEST SWAP3 POP PUSH1 0x20 DUP5 ADD CALLDATALOAD PUSH2 0x2A5E DUP2 PUSH2 0x2954 JUMP JUMPDEST SWAP2 POP PUSH1 0x40 DUP5 ADD CALLDATALOAD PUSH2 0x2A6E DUP2 PUSH2 0x2954 JUMP JUMPDEST DUP1 SWAP2 POP POP SWAP3 POP SWAP3 POP SWAP3 JUMP JUMPDEST PUSH1 0x1 PUSH1 0x1 PUSH1 0xA0 SHL SUB SWAP4 DUP5 AND DUP2 MSTORE SWAP2 SWAP1 SWAP3 AND PUSH1 0x20 DUP3 ADD MSTORE PUSH1 0x40 DUP2 ADD SWAP2 SWAP1 SWAP2 MSTORE PUSH1 0x60 ADD SWAP1 JUMP JUMPDEST PUSH1 0x0 PUSH1 0x20 DUP3 DUP5 SUB SLT ISZERO PUSH2 0x2AAF JUMPI PUSH1 0x0 DUP1 REVERT JUMPDEST POP CALLDATALOAD SWAP2 SWAP1 POP JUMP JUMPDEST PUSH1 0x0 DUP1 DUP4 PUSH1 0x1F DUP5 ADD SLT PUSH2 0x2AC8 JUMPI PUSH1 0x0 DUP1 REVERT JUMPDEST POP DUP2 CALLDATALOAD PUSH8 0xFFFFFFFFFFFFFFFF DUP2 GT ISZERO PUSH2 0x2AE0 JUMPI PUSH1 0x0 DUP1 REVERT JUMPDEST PUSH1 0x20 DUP4 ADD SWAP2 POP DUP4 PUSH1 0x20 DUP3 PUSH1 0x5 SHL DUP6 ADD ADD GT ISZERO PUSH2 0x2AFB JUMPI PUSH1 0x0 DUP1 REVERT JUMPDEST SWAP3 POP SWAP3 SWAP1 POP JUMP JUMPDEST PUSH1 0x0 DUP1 PUSH1 0x0 DUP1 PUSH1 0x0 DUP1 PUSH1 0x80 DUP8 DUP10 SUB SLT ISZERO PUSH2 0x2B1B JUMPI PUSH1 0x0 DUP1 REVERT JUMPDEST DUP7 CALLDATALOAD PUSH2 0x2B26 DUP2 PUSH2 0x2954 JUMP JUMPDEST SWAP6 POP PUSH1 0x20 DUP8 ADD CALLDATALOAD PUSH8 0xFFFFFFFFFFFFFFFF DUP1 DUP3 GT ISZERO PUSH2 0x2B43 JUMPI PUSH1 0x0 DUP1 REVERT JUMPDEST PUSH2 0x2B4F DUP11 DUP4 DUP12 ADD PUSH2 0x2AB6 JUMP JUMPDEST SWAP1 SWAP8 POP SWAP6 POP PUSH1 0x40 DUP10 ADD CALLDATALOAD SWAP2 POP DUP1 DUP3 GT ISZERO PUSH2 0x2B68 JUMPI PUSH1 0x0 DUP1 REVERT JUMPDEST POP PUSH2 0x2B75 DUP10 DUP3 DUP11 ADD PUSH2 0x2AB6 JUMP JUMPDEST SWAP8 SWAP11 SWAP7 SWAP10 POP SWAP5 SWAP8 SWAP5 SWAP7 SWAP6 PUSH1 0x60 SWAP1 SWAP6 ADD CALLDATALOAD SWAP5 SWAP4 POP POP POP POP JUMP JUMPDEST PUSH1 0x0 DUP1 PUSH1 0x0 DUP1 PUSH1 0x0 PUSH1 0x80 DUP7 DUP9 SUB SLT ISZERO PUSH2 0x2BA5 JUMPI PUSH1 0x0 DUP1 REVERT JUMPDEST DUP6 CALLDATALOAD PUSH2 0x2BB0 DUP2 PUSH2 0x2954 JUMP JUMPDEST SWAP5 POP PUSH1 0x20 DUP7 ADD CALLDATALOAD PUSH8 0xFFFFFFFFFFFFFFFF DUP2 GT ISZERO PUSH2 0x2BCC JUMPI PUSH1 0x0 DUP1 REVERT JUMPDEST PUSH2 0x2BD8 DUP9 DUP3 DUP10 ADD PUSH2 0x2AB6 JUMP JUMPDEST SWAP1 SWAP6 POP SWAP4 POP POP PUSH1 0x40 DUP7 ADD CALLDATALOAD PUSH2 0x2BEC DUP2 PUSH2 0x2954 JUMP JUMPDEST SWAP2 POP PUSH1 0x60 DUP7 ADD CALLDATALOAD PUSH2 0x2BFC DUP2 PUSH2 0x2954 JUMP JUMPDEST DUP1 SWAP2 POP POP SWAP3 SWAP6 POP SWAP3 SWAP6 SWAP1 SWAP4 POP JUMP JUMPDEST PUSH4 0x4E487B71 PUSH1 0xE0 SHL PUSH1 0x0 MSTORE PUSH1 0x41 PUSH1 0x4 MSTORE PUSH1 0x24 PUSH1 0x0 REVERT JUMPDEST PUSH1 0x40 MLOAD PUSH2 0x1C0 DUP2 ADD PUSH8 0xFFFFFFFFFFFFFFFF DUP2 GT DUP3 DUP3 LT OR ISZERO PUSH2 0x2C44 JUMPI PUSH2 0x2C44 PUSH2 0x2C0A JUMP JUMPDEST PUSH1 0x40 MSTORE SWAP1 JUMP JUMPDEST PUSH1 0x40 MLOAD PUSH1 0x1F DUP3 ADD PUSH1 0x1F NOT AND DUP2 ADD PUSH8 0xFFFFFFFFFFFFFFFF DUP2 GT DUP3 DUP3 LT OR ISZERO PUSH2 0x2C73 JUMPI PUSH2 0x2C73 PUSH2 0x2C0A JUMP JUMPDEST PUSH1 0x40 MSTORE SWAP2 SWAP1 POP JUMP JUMPDEST PUSH1 0x0 PUSH8 0xFFFFFFFFFFFFFFFF DUP3 GT ISZERO PUSH2 0x2C95 JUMPI PUSH2 0x2C95 PUSH2 0x2C0A JUMP JUMPDEST POP PUSH1 0x5 SHL PUSH1 0x20 ADD SWAP1 JUMP JUMPDEST PUSH1 0x0 DUP3 PUSH1 0x1F DUP4 ADD SLT PUSH2 0x2CB0 JUMPI PUSH1 0x0 DUP1 REVERT JUMPDEST DUP2 CALLDATALOAD PUSH1 0x20 PUSH2 0x2CC5 PUSH2 0x2CC0 DUP4 PUSH2 0x2C7B JUMP JUMPDEST PUSH2 0x2C4A JUMP JUMPDEST DUP3 DUP2 MSTORE PUSH1 0x5 SWAP3 SWAP1 SWAP3 SHL DUP5 ADD DUP2 ADD SWAP2 DUP2 DUP2 ADD SWAP1 DUP7 DUP5 GT ISZERO PUSH2 0x2CE4 JUMPI PUSH1 0x0 DUP1 REVERT JUMPDEST DUP3 DUP7 ADD JUMPDEST DUP5 DUP2 LT ISZERO PUSH2 0x2CFF JUMPI DUP1 CALLDATALOAD DUP4 MSTORE SWAP2 DUP4 ADD SWAP2 DUP4 ADD PUSH2 0x2CE8 JUMP JUMPDEST POP SWAP7 SWAP6 POP POP POP POP POP POP JUMP JUMPDEST PUSH1 0x0 DUP1 PUSH1 0x0 DUP1 PUSH1 0x80 DUP6 DUP8 SUB SLT ISZERO PUSH2 0x2D20 JUMPI PUSH1 0x0 DUP1 REVERT JUMPDEST DUP5 CALLDATALOAD PUSH2 0x2D2B DUP2 PUSH2 0x2954 JUMP JUMPDEST SWAP4 POP PUSH1 0x20 DUP6 ADD CALLDATALOAD PUSH8 0xFFFFFFFFFFFFFFFF DUP2 GT ISZERO PUSH2 0x2D47 JUMPI PUSH1 0x0 DUP1 REVERT JUMPDEST PUSH2 0x2D53 DUP8 DUP3 DUP9 ADD PUSH2 0x2C9F JUMP JUMPDEST SWAP4 POP POP PUSH1 0x40 DUP6 ADD CALLDATALOAD PUSH2 0x2D64 DUP2 PUSH2 0x2954 JUMP JUMPDEST SWAP2 POP PUSH1 0x60 DUP6 ADD CALLDATALOAD PUSH2 0x2D74 DUP2 PUSH2 0x2954 JUMP JUMPDEST SWAP4 SWAP7 SWAP3 SWAP6 POP SWAP1 SWAP4 POP POP JUMP JUMPDEST PUSH1 0x0 DUP1 PUSH1 0x40 DUP4 DUP6 SUB SLT ISZERO PUSH2 0x2D92 JUMPI PUSH1 0x0 DUP1 REVERT JUMPDEST DUP3 CALLDATALOAD PUSH2 0x2D9D DUP2 PUSH2 0x2954 JUMP JUMPDEST SWAP2 POP PUSH1 0x20 DUP4 ADD CALLDATALOAD PUSH8 0xFFFFFFFFFFFFFFFF DUP1 DUP3 GT ISZERO PUSH2 0x2DBA JUMPI PUSH1 0x0 DUP1 REVERT JUMPDEST SWAP1 DUP5 ADD SWAP1 PUSH2 0x1C0 DUP3 DUP8 SUB SLT ISZERO PUSH2 0x2DCF JUMPI PUSH1 0x0 DUP1 REVERT JUMPDEST PUSH2 0x2DD7 PUSH2 0x2C20 JUMP JUMPDEST PUSH2 0x2DE0 DUP4 PUSH2 0x2969 JUMP JUMPDEST DUP2 MSTORE PUSH2 0x2DEE PUSH1 0x20 DUP5 ADD PUSH2 0x2969 JUMP JUMPDEST PUSH1 0x20 DUP3 ADD MSTORE PUSH1 0x40 DUP4 ADD CALLDATALOAD PUSH1 0x40 DUP3 ADD MSTORE PUSH1 0x60 DUP4 ADD CALLDATALOAD PUSH1 0x60 DUP3 ADD MSTORE PUSH1 0x80 DUP4 ADD CALLDATALOAD PUSH1 0x80 DUP3 ADD MSTORE PUSH1 0xA0 DUP4 ADD CALLDATALOAD PUSH1 0xA0 DUP3 ADD MSTORE PUSH1 0xC0 DUP4 ADD CALLDATALOAD PUSH1 0xC0 DUP3 ADD MSTORE PUSH1 0xE0 DUP4 ADD CALLDATALOAD PUSH1 0xE0 DUP3 ADD MSTORE PUSH2 0x100 DUP1 DUP5 ADD CALLDATALOAD DUP2 DUP4 ADD MSTORE POP PUSH2 0x120 DUP1 DUP5 ADD CALLDATALOAD DUP4 DUP2 GT ISZERO PUSH2 0x2E4F JUMPI PUSH1 0x0 DUP1 REVERT JUMPDEST PUSH2 0x2E5B DUP10 DUP3 DUP8 ADD PUSH2 0x2C9F JUMP JUMPDEST DUP3 DUP5 ADD MSTORE POP POP PUSH2 0x140 DUP1 DUP5 ADD CALLDATALOAD DUP4 DUP2 GT ISZERO PUSH2 0x2E75 JUMPI PUSH1 0x0 DUP1 REVERT JUMPDEST PUSH2 0x2E81 DUP10 DUP3 DUP8 ADD PUSH2 0x2C9F JUMP JUMPDEST DUP3 DUP5 ADD MSTORE POP POP PUSH2 0x160 DUP1 DUP5 ADD CALLDATALOAD DUP4 DUP2 GT ISZERO PUSH2 0x2E9B JUMPI PUSH1 0x0 DUP1 REVERT JUMPDEST PUSH2 0x2EA7 DUP10 DUP3 DUP8 ADD PUSH2 0x2C9F JUMP JUMPDEST DUP3 DUP5 ADD MSTORE POP POP PUSH2 0x180 SWAP2 POP PUSH2 0x2EBD DUP3 DUP5 ADD PUSH2 0x2969 JUMP JUMPDEST DUP3 DUP3 ADD MSTORE PUSH2 0x1A0 SWAP2 POP DUP2 DUP4 ADD CALLDATALOAD DUP3 DUP3 ADD MSTORE DUP1 SWAP4 POP POP POP POP SWAP3 POP SWAP3 SWAP1 POP JUMP JUMPDEST PUSH1 0x0 PUSH1 0x20 DUP3 DUP5 SUB SLT ISZERO PUSH2 0x2EED JUMPI PUSH1 0x0 DUP1 REVERT JUMPDEST DUP2 MLOAD PUSH2 0xDD2 DUP2 PUSH2 0x2954 JUMP JUMPDEST PUSH4 0x4E487B71 PUSH1 0xE0 SHL PUSH1 0x0 MSTORE PUSH1 0x11 PUSH1 0x4 MSTORE PUSH1 0x24 PUSH1 0x0 REVERT JUMPDEST PUSH1 0x0 DUP3 DUP3 LT ISZERO PUSH2 0x2F20 JUMPI PUSH2 0x2F20 PUSH2 0x2EF8 JUMP JUMPDEST POP SUB SWAP1 JUMP JUMPDEST PUSH1 0x0 PUSH1 0x20 DUP3 DUP5 SUB SLT ISZERO PUSH2 0x2F37 JUMPI PUSH1 0x0 DUP1 REVERT JUMPDEST DUP2 MLOAD PUSH2 0xDD2 DUP2 PUSH2 0x29D7 JUMP JUMPDEST PUSH1 0x0 PUSH1 0x1 DUP3 ADD PUSH2 0x2F54 JUMPI PUSH2 0x2F54 PUSH2 0x2EF8 JUMP JUMPDEST POP PUSH1 0x1 ADD SWAP1 JUMP JUMPDEST PUSH1 0x0 PUSH1 0x20 DUP3 DUP5 SUB SLT ISZERO PUSH2 0x2F6D JUMPI PUSH1 0x0 DUP1 REVERT JUMPDEST POP MLOAD SWAP2 SWAP1 POP JUMP JUMPDEST PUSH1 0x0 DUP3 NOT DUP3 GT ISZERO PUSH2 0x2F87 JUMPI PUSH2 0x2F87 PUSH2 0x2EF8 JUMP JUMPDEST POP ADD SWAP1 JUMP JUMPDEST PUSH1 0x0 DUP1 PUSH1 0x0 PUSH1 0x60 DUP5 DUP7 SUB SLT ISZERO PUSH2 0x2FA1 JUMPI PUSH1 0x0 DUP1 REVERT JUMPDEST DUP4 MLOAD PUSH2 0x2FAC DUP2 PUSH2 0x2954 JUMP JUMPDEST PUSH1 0x20 DUP6 ADD MLOAD SWAP1 SWAP4 POP PUSH2 0x2FBD DUP2 PUSH2 0x2954 JUMP JUMPDEST DUP1 SWAP3 POP POP PUSH1 0x40 DUP5 ADD MLOAD SWAP1 POP SWAP3 POP SWAP3 POP SWAP3 JUMP JUMPDEST PUSH1 0x1 PUSH1 0x1 PUSH1 0xA0 SHL SUB DUP5 AND DUP2 MSTORE PUSH1 0x40 PUSH1 0x20 DUP3 ADD DUP2 SWAP1 MSTORE DUP2 ADD DUP3 SWAP1 MSTORE PUSH1 0x0 PUSH1 0x1 PUSH1 0x1 PUSH1 0xFB SHL SUB DUP4 GT ISZERO PUSH2 0x2FFF JUMPI PUSH1 0x0 DUP1 REVERT JUMPDEST DUP3 PUSH1 0x5 SHL DUP1 DUP6 PUSH1 0x60 DUP6 ADD CALLDATACOPY PUSH1 0x0 SWAP3 ADD PUSH1 0x60 ADD SWAP2 DUP3 MSTORE POP SWAP4 SWAP3 POP POP POP JUMP JUMPDEST PUSH1 0x0 DUP1 PUSH1 0x40 DUP4 DUP6 SUB SLT ISZERO PUSH2 0x302F JUMPI PUSH1 0x0 DUP1 REVERT JUMPDEST POP POP DUP1 MLOAD PUSH1 0x20 SWAP1 SWAP2 ADD MLOAD SWAP1 SWAP3 SWAP1 SWAP2 POP JUMP JUMPDEST PUSH1 0x0 DUP2 MLOAD DUP1 DUP5 MSTORE PUSH1 0x20 DUP1 DUP6 ADD SWAP5 POP DUP1 DUP5 ADD PUSH1 0x0 JUMPDEST DUP4 DUP2 LT ISZERO PUSH2 0x3070 JUMPI DUP2 MLOAD DUP8 MSTORE SWAP6 DUP3 ADD SWAP6 SWAP1 DUP3 ADD SWAP1 PUSH1 0x1 ADD PUSH2 0x3054 JUMP JUMPDEST POP SWAP5 SWAP6 SWAP5 POP POP POP POP POP JUMP JUMPDEST PUSH1 0x0 PUSH1 0x1 DUP1 PUSH1 0xA0 SHL SUB DUP1 DUP8 AND DUP4 MSTORE PUSH1 0x80 PUSH1 0x20 DUP5 ADD MSTORE PUSH2 0x309D PUSH1 0x80 DUP5 ADD DUP8 PUSH2 0x3040 JUMP JUMPDEST SWAP5 DUP2 AND PUSH1 0x40 DUP5 ADD MSTORE SWAP3 SWAP1 SWAP3 AND PUSH1 0x60 SWAP1 SWAP2 ADD MSTORE POP SWAP3 SWAP2 POP POP JUMP JUMPDEST PUSH1 0x20 DUP2 MSTORE PUSH2 0x30D0 PUSH1 0x20 DUP3 ADD DUP4 MLOAD PUSH1 0x1 PUSH1 0x1 PUSH1 0xA0 SHL SUB AND SWAP1 MSTORE JUMP JUMPDEST PUSH1 0x0 PUSH1 0x20 DUP4 ADD MLOAD PUSH2 0x30EC PUSH1 0x40 DUP5 ADD DUP3 PUSH1 0x1 PUSH1 0x1 PUSH1 0xA0 SHL SUB AND SWAP1 MSTORE JUMP JUMPDEST POP PUSH1 0x40 DUP4 ADD MLOAD PUSH1 0x60 DUP4 ADD MSTORE PUSH1 0x60 DUP4 ADD MLOAD PUSH1 0x80 DUP4 ADD MSTORE PUSH1 0x80 DUP4 ADD MLOAD PUSH1 0xA0 DUP4 ADD MSTORE PUSH1 0xA0 DUP4 ADD MLOAD PUSH1 0xC0 DUP4 ADD MSTORE PUSH1 0xC0 DUP4 ADD MLOAD PUSH1 0xE0 DUP4 ADD MSTORE PUSH1 0xE0 DUP4 ADD MLOAD PUSH2 0x100 DUP2 DUP2 DUP6 ADD MSTORE DUP1 DUP6 ADD MLOAD SWAP2 POP POP PUSH2 0x120 DUP2 DUP2 DUP6 ADD MSTORE DUP1 DUP6 ADD MLOAD SWAP2 POP POP PUSH2 0x1C0 PUSH2 0x140 DUP2 DUP2 DUP7 ADD MSTORE PUSH2 0x315B PUSH2 0x1E0 DUP7 ADD DUP5 PUSH2 0x3040 JUMP JUMPDEST SWAP3 POP DUP1 DUP7 ADD MLOAD SWAP1 POP PUSH1 0x1F NOT PUSH2 0x160 DUP2 DUP8 DUP7 SUB ADD DUP2 DUP9 ADD MSTORE PUSH2 0x317C DUP6 DUP5 PUSH2 0x3040 JUMP JUMPDEST SWAP5 POP DUP1 DUP9 ADD MLOAD SWAP3 POP POP PUSH2 0x180 DUP2 DUP8 DUP7 SUB ADD DUP2 DUP9 ADD MSTORE PUSH2 0x319B DUP6 DUP5 PUSH2 0x3040 JUMP JUMPDEST SWAP5 POP DUP1 DUP9 ADD MLOAD SWAP3 POP POP POP PUSH2 0x1A0 PUSH2 0x31BC DUP2 DUP8 ADD DUP4 PUSH1 0x1 PUSH1 0x1 PUSH1 0xA0 SHL SUB AND SWAP1 MSTORE JUMP JUMPDEST SWAP6 SWAP1 SWAP6 ADD MLOAD SWAP4 ADD SWAP3 SWAP1 SWAP3 MSTORE POP SWAP2 SWAP1 POP JUMP JUMPDEST PUSH1 0x0 DUP3 PUSH1 0x1F DUP4 ADD SLT PUSH2 0x31DE JUMPI PUSH1 0x0 DUP1 REVERT JUMPDEST DUP2 MLOAD PUSH1 0x20 PUSH2 0x31EE PUSH2 0x2CC0 DUP4 PUSH2 0x2C7B JUMP JUMPDEST DUP3 DUP2 MSTORE PUSH1 0x5 SWAP3 SWAP1 SWAP3 SHL DUP5 ADD DUP2 ADD SWAP2 DUP2 DUP2 ADD SWAP1 DUP7 DUP5 GT ISZERO PUSH2 0x320D JUMPI PUSH1 0x0 DUP1 REVERT JUMPDEST DUP3 DUP7 ADD JUMPDEST DUP5 DUP2 LT ISZERO PUSH2 0x2CFF JUMPI DUP1 MLOAD DUP4 MSTORE SWAP2 DUP4 ADD SWAP2 DUP4 ADD PUSH2 0x3211 JUMP JUMPDEST PUSH1 0x0 DUP1 PUSH1 0x40 DUP4 DUP6 SUB SLT ISZERO PUSH2 0x323B JUMPI PUSH1 0x0 DUP1 REVERT JUMPDEST DUP3 MLOAD PUSH8 0xFFFFFFFFFFFFFFFF DUP1 DUP3 GT ISZERO PUSH2 0x3253 JUMPI PUSH1 0x0 DUP1 REVERT JUMPDEST PUSH2 0x325F DUP7 DUP4 DUP8 ADD PUSH2 0x31CD JUMP JUMPDEST SWAP4 POP PUSH1 0x20 DUP6 ADD MLOAD SWAP2 POP DUP1 DUP3 GT ISZERO PUSH2 0x3275 JUMPI PUSH1 0x0 DUP1 REVERT JUMPDEST POP PUSH2 0x3282 DUP6 DUP3 DUP7 ADD PUSH2 0x31CD JUMP JUMPDEST SWAP2 POP POP SWAP3 POP SWAP3 SWAP1 POP JUMP JUMPDEST PUSH4 0x4E487B71 PUSH1 0xE0 SHL PUSH1 0x0 MSTORE PUSH1 0x32 PUSH1 0x4 MSTORE PUSH1 0x24 PUSH1 0x0 REVERT JUMPDEST PUSH1 0x1 PUSH1 0x1 PUSH1 0xA0 SHL SUB DUP11 DUP2 AND DUP3 MSTORE DUP10 DUP2 AND PUSH1 0x20 DUP4 ADD MSTORE PUSH2 0xFFFF DUP10 AND PUSH1 0x40 DUP4 ADD MSTORE PUSH1 0xFF DUP9 DUP2 AND PUSH1 0x60 DUP5 ADD MSTORE DUP8 AND PUSH1 0x80 DUP4 ADD MSTORE PUSH2 0x120 PUSH1 0xA0 DUP4 ADD DUP2 SWAP1 MSTORE PUSH1 0x0 SWAP2 PUSH2 0x32EB DUP5 DUP4 ADD DUP10 PUSH2 0x3040 JUMP JUMPDEST SWAP2 POP DUP4 DUP3 SUB PUSH1 0xC0 DUP6 ADD MSTORE PUSH2 0x32FF DUP3 DUP9 PUSH2 0x3040 JUMP JUMPDEST SWAP6 AND PUSH1 0xE0 DUP5 ADD MSTORE POP POP PUSH2 0x100 ADD MSTORE SWAP8 SWAP7 POP POP POP POP POP POP POP JUMP JUMPDEST PUSH1 0x0 DUP3 MLOAD PUSH1 0x0 JUMPDEST DUP2 DUP2 LT ISZERO PUSH2 0x3339 JUMPI PUSH1 0x20 DUP2 DUP7 ADD DUP2 ADD MLOAD DUP6 DUP4 ADD MSTORE ADD PUSH2 0x331F JUMP JUMPDEST DUP2 DUP2 GT ISZERO PUSH2 0x3348 JUMPI PUSH1 0x0 DUP3 DUP6 ADD MSTORE JUMPDEST POP SWAP2 SWAP1 SWAP2 ADD SWAP3 SWAP2 POP POP JUMP JUMPDEST PUSH4 0x4E487B71 PUSH1 0xE0 SHL PUSH1 0x0 MSTORE PUSH1 0x12 PUSH1 0x4 MSTORE PUSH1 0x24 PUSH1 0x0 REVERT JUMPDEST PUSH4 0x4E487B71 PUSH1 0xE0 SHL PUSH1 0x0 MSTORE PUSH1 0x31 PUSH1 0x4 MSTORE PUSH1 0x24 PUSH1 0x0 REVERT INVALID LOG2 PUSH5 0x6970667358 0x22 SLT KECCAK256 CALL SWAP1 0xB8 BYTE NUMBER GT 0xB5 0x4D PUSH31 0xA074D2305F8C82738681B33426706283C8542A74E6B31764736F6C63430008 0xF STOP CALLER ",
  "sha1": "b61671e2265670b0a04e6a971c4ee13005f1ea3d",
  "source": "// SPDX-License-Identifier: MIT\n\npragma solidity ^0.8.0;\nimport './LiquidXStakePool.sol'; // replace contract with interface\nimport './LiquidXErrors.sol';\n\nimport './library/LowLevelCallHelper.sol';\nimport './library/Math512Bits.sol';\n\nimport './interfaces/ILiquidXAggregator.sol';\nimport './interfaces/IManagerAccount.sol';\nimport './interfaces/ILBToken.sol';\n\nimport \"@openzeppelin/contracts/security/ReentrancyGuard.sol\";\nimport \"@openzeppelin/contracts/utils/structs/EnumerableSet.sol\";\nimport \"@openzeppelin/contracts/token/ERC20/IERC20.sol\";\n\ncontract ManagerAccount is IManagerAccount, ReentrancyGuard{\n    /// @dev Liquidity Parameters used to call tradeJoe interface\n    struct LiquidityParameters {\n        IERC20 tokenX;\n        IERC20 tokenY;\n        uint256 binStep;\n        uint256 amountX;\n        uint256 amountY;\n        uint256 amountXMin;\n        uint256 amountYMin;\n        uint256 activeIdDesired;\n        uint256 idSlippage;\n        int256[] deltaIds;\n        uint256[] distributionX;\n        uint256[] distributionY;\n        address to;\n        uint256 deadline;\n    }\n\n    using EnumerableSet for EnumerableSet.Bytes32Set;\n    using LowLevelCallHelper for address;\n    using Math512Bits for uint256;\n\n\n    bool private accountFrozen;\n    bool private assessState;\n\n    uint256 private credit;\n\n    address private guard;\n    address private manager;\n    address private liquidxAggregator;\n    address private ILBRouterAddress;\n\n    mapping(address => bool) private erc20Approval;\n    mapping(address => uint256) private accountBalanceAvailableLast;\n    mapping(address => uint256) private accountBalanceAvailable;\n    mapping(address => EnumerableSet.Bytes32Set) private mmLBPairToIdSet;\n    mapping(address => mapping(uint256 => uint256)) private mmLBPairToIdToAmount;\n\n    modifier onlyLiquidXAggregator(){\n        require(msg.sender == liquidxAggregator);\n        _;\n    }\n\n    modifier onlyManager(){\n        require(msg.sender == manager);\n        _;\n    }\n\n    modifier onlyGuard(){\n        require(msg.sender == guard);\n        _;\n    }\n\n    modifier safeCheck(){\n        require((!accountFrozen && msg.sender == manager) || msg.sender == liquidxAggregator || msg.sender == guard);\n        _;\n    }\n\n    modifier creditAssessInit(){\n        bool liquidityRemovedAll = true;\n        for (uint i = 0; i < getApprovedLBPairsLength(); i++){\n            if(mmLBPairToIdSet[getApprovedLBPairByIndex(i)].length() != 0){\n                liquidityRemovedAll = false;\n                break;\n            }\n        }\n        /// every repay, borrow, deposit, withdraw would turn assessState to false\n        if (liquidityRemovedAll && assessState == false){\n            uint256 length = ILiquidXAggregator(liquidxAggregator).getStakePoolsLength();\n            for(uint i = 0; i < length; i++){\n                address forLoopToken = LiquidXStakePool(ILiquidXAggregator(liquidxAggregator).getStakePoolByIndex(i)).getStakeTokenAddress();\n                accountBalanceAvailableLast[forLoopToken] = accountBalanceAvailable[forLoopToken];\n            }\n            assessState = true;\n        }\n        _;\n    }\n    ///5.8update add new condition of calculating min ratio(accountBalanceAvailableLast[forLoopToken] > 0). towardsPositive and towardsNegative are deprecated\n    modifier creditAssessEnd(){\n        bool liquidityRemovedAll = true;\n        for (uint i = 0; i < getApprovedLBPairsLength(); i++){\n            if(mmLBPairToIdSet[getApprovedLBPairByIndex(i)].length() != 0){\n                liquidityRemovedAll = false;\n                break;\n            }\n        }\n        if (liquidityRemovedAll && assessState){\n            uint256 length = ILiquidXAggregator(liquidxAggregator).getStakePoolsLength();\n            uint256 minRatio;\n            address forLoopToken;\n            for(uint i = 0; i < length; i++){\n                forLoopToken = LiquidXStakePool(ILiquidXAggregator(liquidxAggregator).getStakePoolByIndex(i)).getStakeTokenAddress();\n                /// apply min(y2 / y1) - 1 (y2 > y1) or 1 - min(y2 / y1) (y2 < y1)\n                /// accountBalanceAvailableLast[forLoopToken] cannot be zero\n                if(accountBalanceAvailableLast[forLoopToken] > 0){\n                    if(minRatio > 0) minRatio = min(minRatio,  uint256(accountBalanceAvailable[forLoopToken].shiftDivRoundDown(16, accountBalanceAvailableLast[forLoopToken]))); // inline fixed-point(16X16) number generation\n                    else{\n                       minRatio = uint256(accountBalanceAvailable[forLoopToken].shiftDivRoundDown(16, accountBalanceAvailableLast[forLoopToken]));\n                    }\n                }\n            }\n            if (minRatio > 2 ** 16){\n                credit += (minRatio - 2 ** 16);\n                if(credit > 2 ** 16){\n                    credit = 2 ** 16;\n                }\n            }else if(minRatio < 2 ** 16){\n                if((2 ** 16 - minRatio) < credit){\n                    credit -= (2 ** 16 - minRatio);\n                }else{\n                    credit = 0;\n                }\n            }\n        }\n        assessState = false;\n        _;\n    }\n\n    constructor() public{\n        liquidxAggregator = msg.sender;\n    }\n\n    function initializeAccount(address guard_, address manager_, address ILBRouterAddress_) external override onlyLiquidXAggregator {\n        guard = guard_;\n        manager = manager_;\n        ILBRouterAddress = ILBRouterAddress_;\n    }\n\n    function setERC20Approval(address token_) public override safeCheck{\n        if (ILBRouterAddress == address(0)) revert ManagerAccount__AccountNotInitialized();\n        erc20Approval[token_] = true;\n        IERC20(token_).approve(ILBRouterAddress, type(uint256).max);\n        ILiquidXAggregator(liquidxAggregator).approveFromAccount(token_);\n    }\n\n    function addLiquidity(address pairAddress_, LiquidityParameters memory paramsUser_) external safeCheck creditAssessInit nonReentrant{\n        if(getLBPairApprovalIf(pairAddress_) == false) revert ManagerAccount__PairNotExists();\n        (paramsUser_.tokenX, paramsUser_.tokenY, paramsUser_.binStep) = getLBPairInfoMapping(pairAddress_);\n        if(!erc20Approval[address(paramsUser_.tokenX)]) setERC20Approval(address(paramsUser_.tokenX));\n        if(!erc20Approval[address(paramsUser_.tokenY)]) setERC20Approval(address(paramsUser_.tokenY));\n        paramsUser_.to = address(this);\n        /// perform a low-level call to lower contract creation gas cost\n        bytes memory data = abi.encodeWithSignature(\"addLiquidity((address,address,uint256,uint256,uint256,uint256,uint256,uint256,uint256,int256[],uint256[],uint256[],address,uint256))\", paramsUser_); //this can be replaced abi.encodeWithSelector\n        bytes memory results = ILBRouterAddress._callAndCatchError(data);\n        /// decode results update minted liquidity\n        (uint256[] memory depositIds, uint256[] memory liquidityMinted) = abi.decode(results, (uint256[], uint256[]));\n        for (uint256 i = 0; i < depositIds.length; i++){\n            if(mmLBPairToIdToAmount[pairAddress_][depositIds[i]] == 0) mmLBPairToIdSet[pairAddress_].add(bytes32(depositIds[i]));\n            mmLBPairToIdToAmount[pairAddress_][depositIds[i]] += liquidityMinted[i];\n        }\n        /// update new erc20 balance\n        accountBalanceAvailable[address(paramsUser_.tokenX)] = paramsUser_.tokenX.balanceOf(address(this));\n        accountBalanceAvailable[address(paramsUser_.tokenY)] = paramsUser_.tokenY.balanceOf(address(this));\n    }\n\n    function removeLiquidity(\n        address pairAddress_,\n        uint256[] calldata ids_,\n        uint256[] calldata amounts_,\n        uint256 deadline_) external override safeCheck nonReentrant{\n        _removeLiquidity(pairAddress_, ids_, amounts_, deadline_);\n    }\n\n    function _removeLiquidity(\n        address pairAddress_,\n        uint256[] memory ids_,\n        uint256[] memory amounts_,\n        uint256 deadline_) internal {\n        if(getLBPairApprovalIf(pairAddress_) == false) revert ManagerAccount__PairNotExists();\n        if(!ILBToken(pairAddress_).isApprovedForAll(address(this), ILBRouterAddress)) ILBToken(pairAddress_).setApprovalForAll(ILBRouterAddress, true);\n        (IERC20 tokenX, IERC20 tokenY, uint256 binStep) = getLBPairInfoMapping(pairAddress_);\n        ILiquidXAggregator(liquidxAggregator).collectFeesFromAccount(pairAddress_, ids_, tokenX, tokenY);\n        bytes memory data = abi.encodeWithSignature(\"removeLiquidity(address,address,uint16,uint256,uint256,uint256[],uint256[],address,uint256)\", tokenX, tokenY, uint16(binStep), 0, 0, ids_, amounts_, address(this), deadline_);\n        ILBRouterAddress._callAndCatchError(data);\n        /// update new lbt liquidity\n        for (uint i = 0; i < ids_.length; i++){\n            mmLBPairToIdToAmount[pairAddress_][ids_[i]] -= amounts_[i];\n            if(mmLBPairToIdToAmount[pairAddress_][ids_[i]] == 0) mmLBPairToIdSet[pairAddress_].remove(bytes32(ids_[i]));\n        }\n        /// update new balance\n        accountBalanceAvailable[address(tokenX)] = tokenX.balanceOf(address(this));\n        accountBalanceAvailable[address(tokenY)] = tokenY.balanceOf(address(this));\n    }\n\n    // this function should be deleted by formally deploying this contract on chain\n    function testCollectFees(address pairAddress_, uint256[] memory ids_, IERC20 tokenX, IERC20 tokenY) external{\n        ILiquidXAggregator(liquidxAggregator).collectFeesFromAccount(pairAddress_, ids_, tokenX, tokenY);\n    }\n\n    function repay(address repayToken_) external override safeCheck creditAssessEnd {\n        ILiquidXAggregator(liquidxAggregator).repayFromAccount(repayToken_);\n    }\n\n    function borrow(address borrowToken_, uint256 borrowAmount_) external override safeCheck creditAssessEnd {\n        ILiquidXAggregator(liquidxAggregator).borrowFromAccount(borrowToken_, borrowAmount_);\n    }\n\n    function deposit(address token_, uint256 amountIn_) external override safeCheck creditAssessEnd{\n        ILiquidXAggregator(liquidxAggregator).depositFromAccount(msg.sender, token_, amountIn_);\n    }\n\n    function withdraw(address token_, uint256 amountOut_) external override safeCheck creditAssessEnd{\n        ILiquidXAggregator(liquidxAggregator).withdrawFromAccount(msg.sender, token_, amountOut_);\n    }\n\n    function collectFees(address pairAddress_, uint256[] calldata ids_, IERC20 tokenX_, IERC20 tokenY_) external onlyLiquidXAggregator returns(uint256 amountX, uint256 amountY){\n        bytes memory data = abi.encodeWithSignature(\"collectFees(address,uint256[])\", address(this), ids_);\n        bytes memory results = pairAddress_._callAndCatchError(data);\n        (amountX, amountY) = abi.decode(results, (uint256, uint256));\n        accountBalanceAvailable[address(tokenX_)] += amountX;\n        accountBalanceAvailable[address(tokenY_)] += amountY;\n    }\n\n    function updateFreezeState(bool state_) external override onlyLiquidXAggregator{\n        if(state_ != accountFrozen) accountFrozen = !accountFrozen;\n    }\n\n    function transferOut(address to_, address token_, uint256 amountOut_) external override onlyLiquidXAggregator{\n        accountBalanceAvailable[token_] -= amountOut_;\n        IERC20(token_).transfer(to_, amountOut_);\n    }\n\n    function transferIn(address from_, address token_, uint256 amountIn_) external override onlyLiquidXAggregator{\n        accountBalanceAvailable[token_] += amountIn_;\n        IERC20(token_).transferFrom(from_, address(this), amountIn_);\n    }\n\n    function min(uint256 a, uint256 b) internal pure returns(uint256){\n        if(a < b) return a;\n        else return b;\n    }\n\n    function getAccountFrozen() public view override returns(bool){\n        return accountFrozen;\n    }\n\n    function getAssessState() public view override returns(bool){\n        return assessState;\n    }\n\n    function getCredit() public view override returns(uint256){\n        return credit;\n    }\n\n    function getManager() public view override returns(address){\n        return manager;\n    }\n\n    function getApprovedLBPairsLength() public view override returns(uint256){\n        return ILiquidXAggregator(liquidxAggregator).getLBPairsAllowedLength();\n    }\n\n    function getApprovedLBPairByIndex(uint256 index_) public view override returns(address){\n        return ILiquidXAggregator(liquidxAggregator).getLBPairAllowedByIndex(index_);\n    }\n\n    function getLBPairApprovalIf(address lbPair_) public view override returns(bool){\n        return ILiquidXAggregator(liquidxAggregator).getLBPairApprovalIf(lbPair_);\n    }\n\n    function getAccountBalanceAvailableLast(address token_) public view override returns(uint256){\n        return accountBalanceAvailableLast[token_];\n    }\n\n    function getAccountBalanceAvailable(address token_) public view override returns(uint256){\n        return accountBalanceAvailable[token_];\n    }\n\n    function getLBPairInfoMapping(address pair_) public view override returns(IERC20,IERC20,uint256){\n        return ILiquidXAggregator(liquidxAggregator).getLBPairInfoMapping(pair_);\n    }\n\n    function getLBPairInfoTokenX(address pair_) public view override returns(IERC20){\n        return ILiquidXAggregator(liquidxAggregator).getLBPairInfoTokenX(pair_);\n    }\n\n    function getLBPairInfoTokenY(address pair_) public view override returns(IERC20){\n        return ILiquidXAggregator(liquidxAggregator).getLBPairInfoTokenY(pair_);\n    }\n\n    function getLBPairInfoTokenBinStep(address pair_) public view override returns(uint256){\n        return ILiquidXAggregator(liquidxAggregator).getLBPairInfoTokenBinStep(pair_);\n    }\n\n    function getMMLBPairToIdSetLength(address pair_) public view override returns(uint256){\n        return uint256(mmLBPairToIdSet[pair_].length());\n    }\n\n    function getMMLBPairToIdSetAtValue(address pair_, uint256 index_) public view override returns(uint256){\n        return uint256(mmLBPairToIdSet[pair_].at(index_));\n    }\n    /// storage can be returned from internal function, not public view\n    function getMMLBPairToIdToAmount(address pair_, uint256 id_) public view override returns(uint256){\n        return mmLBPairToIdToAmount[pair_][id_];\n    }\n\n}\n",
  "sourcePath": "contracts/ManagerAccount.sol",
  "type": "contract"
}